{
  "contractName": "ERC1820Implementer",
  "abi": [
    {
      "inputs": [
        {
          "internalType": "bytes32",
          "name": "interfaceHash",
          "type": "bytes32"
        },
        {
          "internalType": "address",
          "name": "account",
          "type": "address"
        }
      ],
      "name": "canImplementInterfaceForAddress",
      "outputs": [
        {
          "internalType": "bytes32",
          "name": "",
          "type": "bytes32"
        }
      ],
      "stateMutability": "view",
      "type": "function"
    }
  ],
  "bytecode": "0x608060405234801561001057600080fd5b5061022f806100206000396000f3fe608060405234801561001057600080fd5b506004361061002b5760003560e01c8063249cb3fa14610030575b600080fd5b61004a6004803603810190610045919061018f565b610060565b60405161005791906101de565b60405180910390f35b600080600084815260200190815260200160002060008373ffffffffffffffffffffffffffffffffffffffff1673ffffffffffffffffffffffffffffffffffffffff16815260200190815260200160002060009054906101000a900460ff166100cc576000801b6100ee565b7fa2ef4600d742022d532d4747cb3547474667d6f13804902513b2ec01c848f4b45b905092915050565b600080fd5b6000819050919050565b61010e816100fb565b811461011957600080fd5b50565b60008135905061012b81610105565b92915050565b600073ffffffffffffffffffffffffffffffffffffffff82169050919050565b600061015c82610131565b9050919050565b61016c81610151565b811461017757600080fd5b50565b60008135905061018981610163565b92915050565b600080604083850312156101a6576101a56100f6565b5b60006101b48582860161011c565b92505060206101c58582860161017a565b9150509250929050565b6101d8816100fb565b82525050565b60006020820190506101f360008301846101cf565b9291505056fea2646970667358221220a93f4489e05a72840dcc6ceb61106c00d5e7a29cf2275576a0ab49731810c64464736f6c634300080a0033",
  "immutableReferences": {},
  "source": "// SPDX-License-Identifier: MIT\r\n// OpenZeppelin Contracts v4.4.0 (utils/introspection/ERC1820Implementer.sol)\r\n\r\npragma solidity ^0.8.0;\r\n\r\nimport \"./IERC1820Implementer.sol\";\r\n\r\n/**\r\n * @dev Implementation of the {IERC1820Implementer} interface.\r\n *\r\n * Contracts may inherit from this and call {_registerInterfaceForAddress} to\r\n * declare their willingness to be implementers.\r\n * {IERC1820Registry-setInterfaceImplementer} should then be called for the\r\n * registration to be complete.\r\n */\r\ncontract ERC1820Implementer is IERC1820Implementer {\r\n    bytes32 private constant _ERC1820_ACCEPT_MAGIC = keccak256(\"ERC1820_ACCEPT_MAGIC\");\r\n\r\n    mapping(bytes32 => mapping(address => bool)) private _supportedInterfaces;\r\n\r\n    /**\r\n     * @dev See {IERC1820Implementer-canImplementInterfaceForAddress}.\r\n     */\r\n    function canImplementInterfaceForAddress(bytes32 interfaceHash, address account)\r\n        public\r\n        view\r\n        virtual\r\n        override\r\n        returns (bytes32)\r\n    {\r\n        return _supportedInterfaces[interfaceHash][account] ? _ERC1820_ACCEPT_MAGIC : bytes32(0x00);\r\n    }\r\n\r\n    /**\r\n     * @dev Declares the contract as willing to be an implementer of\r\n     * `interfaceHash` for `account`.\r\n     *\r\n     * See {IERC1820Registry-setInterfaceImplementer} and\r\n     * {IERC1820Registry-interfaceHash}.\r\n     */\r\n    function _registerInterfaceForAddress(bytes32 interfaceHash, address account) internal virtual {\r\n        _supportedInterfaces[interfaceHash][account] = true;\r\n    }\r\n}\r\n",
  "sourcePath": "D:\\Blockchain\\MetaScence\\contracts\\@openzeppelin\\contracts\\utils\\introspection\\ERC1820Implementer.sol",
  "compiler": {
    "name": "solc",
    "version": "0.8.10+commit.fc410830.Emscripten.clang"
  },
  "schemaVersion": "3.4.3",
  "updatedAt": "2021-12-16T04:20:06.151Z",
  "devdoc": {
    "details": "Implementation of the {IERC1820Implementer} interface. Contracts may inherit from this and call {_registerInterfaceForAddress} to declare their willingness to be implementers. {IERC1820Registry-setInterfaceImplementer} should then be called for the registration to be complete.",
    "kind": "dev",
    "methods": {
      "canImplementInterfaceForAddress(bytes32,address)": {
        "details": "See {IERC1820Implementer-canImplementInterfaceForAddress}."
      }
    },
    "version": 1
  },
  "userdoc": {
    "kind": "user",
    "methods": {},
    "version": 1
  }
}