{
  "contractName": "ERC721PresetMinterPauserAutoId",
  "abi": [
    {
      "inputs": [
        {
          "internalType": "string",
          "name": "name",
          "type": "string"
        },
        {
          "internalType": "string",
          "name": "symbol",
          "type": "string"
        },
        {
          "internalType": "string",
          "name": "baseTokenURI",
          "type": "string"
        }
      ],
      "stateMutability": "nonpayable",
      "type": "constructor"
    },
    {
      "anonymous": false,
      "inputs": [
        {
          "indexed": true,
          "internalType": "address",
          "name": "owner",
          "type": "address"
        },
        {
          "indexed": true,
          "internalType": "address",
          "name": "approved",
          "type": "address"
        },
        {
          "indexed": true,
          "internalType": "uint256",
          "name": "tokenId",
          "type": "uint256"
        }
      ],
      "name": "Approval",
      "type": "event"
    },
    {
      "anonymous": false,
      "inputs": [
        {
          "indexed": true,
          "internalType": "address",
          "name": "owner",
          "type": "address"
        },
        {
          "indexed": true,
          "internalType": "address",
          "name": "operator",
          "type": "address"
        },
        {
          "indexed": false,
          "internalType": "bool",
          "name": "approved",
          "type": "bool"
        }
      ],
      "name": "ApprovalForAll",
      "type": "event"
    },
    {
      "anonymous": false,
      "inputs": [
        {
          "indexed": false,
          "internalType": "address",
          "name": "account",
          "type": "address"
        }
      ],
      "name": "Paused",
      "type": "event"
    },
    {
      "anonymous": false,
      "inputs": [
        {
          "indexed": true,
          "internalType": "bytes32",
          "name": "role",
          "type": "bytes32"
        },
        {
          "indexed": true,
          "internalType": "bytes32",
          "name": "previousAdminRole",
          "type": "bytes32"
        },
        {
          "indexed": true,
          "internalType": "bytes32",
          "name": "newAdminRole",
          "type": "bytes32"
        }
      ],
      "name": "RoleAdminChanged",
      "type": "event"
    },
    {
      "anonymous": false,
      "inputs": [
        {
          "indexed": true,
          "internalType": "bytes32",
          "name": "role",
          "type": "bytes32"
        },
        {
          "indexed": true,
          "internalType": "address",
          "name": "account",
          "type": "address"
        },
        {
          "indexed": true,
          "internalType": "address",
          "name": "sender",
          "type": "address"
        }
      ],
      "name": "RoleGranted",
      "type": "event"
    },
    {
      "anonymous": false,
      "inputs": [
        {
          "indexed": true,
          "internalType": "bytes32",
          "name": "role",
          "type": "bytes32"
        },
        {
          "indexed": true,
          "internalType": "address",
          "name": "account",
          "type": "address"
        },
        {
          "indexed": true,
          "internalType": "address",
          "name": "sender",
          "type": "address"
        }
      ],
      "name": "RoleRevoked",
      "type": "event"
    },
    {
      "anonymous": false,
      "inputs": [
        {
          "indexed": true,
          "internalType": "address",
          "name": "from",
          "type": "address"
        },
        {
          "indexed": true,
          "internalType": "address",
          "name": "to",
          "type": "address"
        },
        {
          "indexed": true,
          "internalType": "uint256",
          "name": "tokenId",
          "type": "uint256"
        }
      ],
      "name": "Transfer",
      "type": "event"
    },
    {
      "anonymous": false,
      "inputs": [
        {
          "indexed": false,
          "internalType": "address",
          "name": "account",
          "type": "address"
        }
      ],
      "name": "Unpaused",
      "type": "event"
    },
    {
      "inputs": [],
      "name": "DEFAULT_ADMIN_ROLE",
      "outputs": [
        {
          "internalType": "bytes32",
          "name": "",
          "type": "bytes32"
        }
      ],
      "stateMutability": "view",
      "type": "function"
    },
    {
      "inputs": [],
      "name": "MINTER_ROLE",
      "outputs": [
        {
          "internalType": "bytes32",
          "name": "",
          "type": "bytes32"
        }
      ],
      "stateMutability": "view",
      "type": "function"
    },
    {
      "inputs": [],
      "name": "PAUSER_ROLE",
      "outputs": [
        {
          "internalType": "bytes32",
          "name": "",
          "type": "bytes32"
        }
      ],
      "stateMutability": "view",
      "type": "function"
    },
    {
      "inputs": [
        {
          "internalType": "address",
          "name": "to",
          "type": "address"
        },
        {
          "internalType": "uint256",
          "name": "tokenId",
          "type": "uint256"
        }
      ],
      "name": "approve",
      "outputs": [],
      "stateMutability": "nonpayable",
      "type": "function"
    },
    {
      "inputs": [
        {
          "internalType": "address",
          "name": "owner",
          "type": "address"
        }
      ],
      "name": "balanceOf",
      "outputs": [
        {
          "internalType": "uint256",
          "name": "",
          "type": "uint256"
        }
      ],
      "stateMutability": "view",
      "type": "function"
    },
    {
      "inputs": [
        {
          "internalType": "uint256",
          "name": "tokenId",
          "type": "uint256"
        }
      ],
      "name": "burn",
      "outputs": [],
      "stateMutability": "nonpayable",
      "type": "function"
    },
    {
      "inputs": [
        {
          "internalType": "uint256",
          "name": "tokenId",
          "type": "uint256"
        }
      ],
      "name": "getApproved",
      "outputs": [
        {
          "internalType": "address",
          "name": "",
          "type": "address"
        }
      ],
      "stateMutability": "view",
      "type": "function"
    },
    {
      "inputs": [
        {
          "internalType": "bytes32",
          "name": "role",
          "type": "bytes32"
        }
      ],
      "name": "getRoleAdmin",
      "outputs": [
        {
          "internalType": "bytes32",
          "name": "",
          "type": "bytes32"
        }
      ],
      "stateMutability": "view",
      "type": "function"
    },
    {
      "inputs": [
        {
          "internalType": "bytes32",
          "name": "role",
          "type": "bytes32"
        },
        {
          "internalType": "uint256",
          "name": "index",
          "type": "uint256"
        }
      ],
      "name": "getRoleMember",
      "outputs": [
        {
          "internalType": "address",
          "name": "",
          "type": "address"
        }
      ],
      "stateMutability": "view",
      "type": "function"
    },
    {
      "inputs": [
        {
          "internalType": "bytes32",
          "name": "role",
          "type": "bytes32"
        }
      ],
      "name": "getRoleMemberCount",
      "outputs": [
        {
          "internalType": "uint256",
          "name": "",
          "type": "uint256"
        }
      ],
      "stateMutability": "view",
      "type": "function"
    },
    {
      "inputs": [
        {
          "internalType": "bytes32",
          "name": "role",
          "type": "bytes32"
        },
        {
          "internalType": "address",
          "name": "account",
          "type": "address"
        }
      ],
      "name": "grantRole",
      "outputs": [],
      "stateMutability": "nonpayable",
      "type": "function"
    },
    {
      "inputs": [
        {
          "internalType": "bytes32",
          "name": "role",
          "type": "bytes32"
        },
        {
          "internalType": "address",
          "name": "account",
          "type": "address"
        }
      ],
      "name": "hasRole",
      "outputs": [
        {
          "internalType": "bool",
          "name": "",
          "type": "bool"
        }
      ],
      "stateMutability": "view",
      "type": "function"
    },
    {
      "inputs": [
        {
          "internalType": "address",
          "name": "owner",
          "type": "address"
        },
        {
          "internalType": "address",
          "name": "operator",
          "type": "address"
        }
      ],
      "name": "isApprovedForAll",
      "outputs": [
        {
          "internalType": "bool",
          "name": "",
          "type": "bool"
        }
      ],
      "stateMutability": "view",
      "type": "function"
    },
    {
      "inputs": [],
      "name": "name",
      "outputs": [
        {
          "internalType": "string",
          "name": "",
          "type": "string"
        }
      ],
      "stateMutability": "view",
      "type": "function"
    },
    {
      "inputs": [
        {
          "internalType": "uint256",
          "name": "tokenId",
          "type": "uint256"
        }
      ],
      "name": "ownerOf",
      "outputs": [
        {
          "internalType": "address",
          "name": "",
          "type": "address"
        }
      ],
      "stateMutability": "view",
      "type": "function"
    },
    {
      "inputs": [],
      "name": "paused",
      "outputs": [
        {
          "internalType": "bool",
          "name": "",
          "type": "bool"
        }
      ],
      "stateMutability": "view",
      "type": "function"
    },
    {
      "inputs": [
        {
          "internalType": "bytes32",
          "name": "role",
          "type": "bytes32"
        },
        {
          "internalType": "address",
          "name": "account",
          "type": "address"
        }
      ],
      "name": "renounceRole",
      "outputs": [],
      "stateMutability": "nonpayable",
      "type": "function"
    },
    {
      "inputs": [
        {
          "internalType": "bytes32",
          "name": "role",
          "type": "bytes32"
        },
        {
          "internalType": "address",
          "name": "account",
          "type": "address"
        }
      ],
      "name": "revokeRole",
      "outputs": [],
      "stateMutability": "nonpayable",
      "type": "function"
    },
    {
      "inputs": [
        {
          "internalType": "address",
          "name": "from",
          "type": "address"
        },
        {
          "internalType": "address",
          "name": "to",
          "type": "address"
        },
        {
          "internalType": "uint256",
          "name": "tokenId",
          "type": "uint256"
        }
      ],
      "name": "safeTransferFrom",
      "outputs": [],
      "stateMutability": "nonpayable",
      "type": "function"
    },
    {
      "inputs": [
        {
          "internalType": "address",
          "name": "from",
          "type": "address"
        },
        {
          "internalType": "address",
          "name": "to",
          "type": "address"
        },
        {
          "internalType": "uint256",
          "name": "tokenId",
          "type": "uint256"
        },
        {
          "internalType": "bytes",
          "name": "_data",
          "type": "bytes"
        }
      ],
      "name": "safeTransferFrom",
      "outputs": [],
      "stateMutability": "nonpayable",
      "type": "function"
    },
    {
      "inputs": [
        {
          "internalType": "address",
          "name": "operator",
          "type": "address"
        },
        {
          "internalType": "bool",
          "name": "approved",
          "type": "bool"
        }
      ],
      "name": "setApprovalForAll",
      "outputs": [],
      "stateMutability": "nonpayable",
      "type": "function"
    },
    {
      "inputs": [],
      "name": "symbol",
      "outputs": [
        {
          "internalType": "string",
          "name": "",
          "type": "string"
        }
      ],
      "stateMutability": "view",
      "type": "function"
    },
    {
      "inputs": [
        {
          "internalType": "uint256",
          "name": "index",
          "type": "uint256"
        }
      ],
      "name": "tokenByIndex",
      "outputs": [
        {
          "internalType": "uint256",
          "name": "",
          "type": "uint256"
        }
      ],
      "stateMutability": "view",
      "type": "function"
    },
    {
      "inputs": [
        {
          "internalType": "address",
          "name": "owner",
          "type": "address"
        },
        {
          "internalType": "uint256",
          "name": "index",
          "type": "uint256"
        }
      ],
      "name": "tokenOfOwnerByIndex",
      "outputs": [
        {
          "internalType": "uint256",
          "name": "",
          "type": "uint256"
        }
      ],
      "stateMutability": "view",
      "type": "function"
    },
    {
      "inputs": [
        {
          "internalType": "uint256",
          "name": "tokenId",
          "type": "uint256"
        }
      ],
      "name": "tokenURI",
      "outputs": [
        {
          "internalType": "string",
          "name": "",
          "type": "string"
        }
      ],
      "stateMutability": "view",
      "type": "function"
    },
    {
      "inputs": [],
      "name": "totalSupply",
      "outputs": [
        {
          "internalType": "uint256",
          "name": "",
          "type": "uint256"
        }
      ],
      "stateMutability": "view",
      "type": "function"
    },
    {
      "inputs": [
        {
          "internalType": "address",
          "name": "from",
          "type": "address"
        },
        {
          "internalType": "address",
          "name": "to",
          "type": "address"
        },
        {
          "internalType": "uint256",
          "name": "tokenId",
          "type": "uint256"
        }
      ],
      "name": "transferFrom",
      "outputs": [],
      "stateMutability": "nonpayable",
      "type": "function"
    },
    {
      "inputs": [
        {
          "internalType": "address",
          "name": "to",
          "type": "address"
        }
      ],
      "name": "mint",
      "outputs": [],
      "stateMutability": "nonpayable",
      "type": "function"
    },
    {
      "inputs": [],
      "name": "pause",
      "outputs": [],
      "stateMutability": "nonpayable",
      "type": "function"
    },
    {
      "inputs": [],
      "name": "unpause",
      "outputs": [],
      "stateMutability": "nonpayable",
      "type": "function"
    },
    {
      "inputs": [
        {
          "internalType": "bytes4",
          "name": "interfaceId",
          "type": "bytes4"
        }
      ],
      "name": "supportsInterface",
      "outputs": [
        {
          "internalType": "bool",
          "name": "",
          "type": "bool"
        }
      ],
      "stateMutability": "view",
      "type": "function"
    }
  ],
  "bytecode": "0x60806040523480156200001157600080fd5b5060405162004f1d38038062004f1d833981810160405281019062000037919062000633565b8282816002908051906020019062000051929190620003e6565b5080600390805190602001906200006a929190620003e6565b5050506000600c60006101000a81548160ff02191690831515021790555080600e9080519060200190620000a0929190620003e6565b50620000c56000801b620000b96200015060201b60201c565b6200015860201b60201c565b620001067f9f2df0fed2c77648de5860a4cc508cd0818c85b8b8a1ab4ceeef8d981c8956a6620000fa6200015060201b60201c565b6200015860201b60201c565b620001477f65d7a28e3265b37a6474929f336521b332c1681b933f6cb9f3376673440d862a6200013b6200015060201b60201c565b6200015860201b60201c565b50505062000751565b600033905090565b6200016a82826200016e60201b60201c565b5050565b620001858282620001b660201b620011b21760201c565b620001b18160016000858152602001908152602001600020620002a760201b620012921790919060201c565b505050565b620001c88282620002df60201b60201c565b620002a357600160008084815260200190815260200160002060000160008373ffffffffffffffffffffffffffffffffffffffff1673ffffffffffffffffffffffffffffffffffffffff16815260200190815260200160002060006101000a81548160ff021916908315150217905550620002486200015060201b60201c565b73ffffffffffffffffffffffffffffffffffffffff168173ffffffffffffffffffffffffffffffffffffffff16837f2f8788117e7eff1d82e926ec794901d17c78024a50270940304540a733656f0d60405160405180910390a45b5050565b6000620002d7836000018373ffffffffffffffffffffffffffffffffffffffff1660001b6200034960201b60201c565b905092915050565b600080600084815260200190815260200160002060000160008373ffffffffffffffffffffffffffffffffffffffff1673ffffffffffffffffffffffffffffffffffffffff16815260200190815260200160002060009054906101000a900460ff16905092915050565b60006200035d8383620003c360201b60201c565b620003b8578260000182908060018154018082558091505060019003906000526020600020016000909190919091505582600001805490508360010160008481526020019081526020016000208190555060019050620003bd565b600090505b92915050565b600080836001016000848152602001908152602001600020541415905092915050565b828054620003f4906200071b565b90600052602060002090601f01602090048101928262000418576000855562000464565b82601f106200043357805160ff191683800117855562000464565b8280016001018555821562000464579182015b828111156200046357825182559160200191906001019062000446565b5b50905062000473919062000477565b5090565b5b808211156200049257600081600090555060010162000478565b5090565b6000604051905090565b600080fd5b600080fd5b600080fd5b600080fd5b6000601f19601f8301169050919050565b7f4e487b7100000000000000000000000000000000000000000000000000000000600052604160045260246000fd5b620004ff82620004b4565b810181811067ffffffffffffffff82111715620005215762000520620004c5565b5b80604052505050565b60006200053662000496565b9050620005448282620004f4565b919050565b600067ffffffffffffffff821115620005675762000566620004c5565b5b6200057282620004b4565b9050602081019050919050565b60005b838110156200059f57808201518184015260208101905062000582565b83811115620005af576000848401525b50505050565b6000620005cc620005c68462000549565b6200052a565b905082815260208101848484011115620005eb57620005ea620004af565b5b620005f88482856200057f565b509392505050565b600082601f830112620006185762000617620004aa565b5b81516200062a848260208601620005b5565b91505092915050565b6000806000606084860312156200064f576200064e620004a0565b5b600084015167ffffffffffffffff81111562000670576200066f620004a5565b5b6200067e8682870162000600565b935050602084015167ffffffffffffffff811115620006a257620006a1620004a5565b5b620006b08682870162000600565b925050604084015167ffffffffffffffff811115620006d457620006d3620004a5565b5b620006e28682870162000600565b9150509250925092565b7f4e487b7100000000000000000000000000000000000000000000000000000000600052602260045260246000fd5b600060028204905060018216806200073457607f821691505b602082108114156200074b576200074a620006ec565b5b50919050565b6147bc80620007616000396000f3fe608060405234801561001057600080fd5b50600436106101e55760003560e01c80636352211e1161010f578063a22cb465116100a2578063d539139311610071578063d5391393146105a0578063d547741f146105be578063e63ab1e9146105da578063e985e9c5146105f8576101e5565b8063a22cb46514610508578063b88d4fde14610524578063c87b56dd14610540578063ca15c87314610570576101e5565b80639010d07c116100de5780639010d07c1461046c57806391d148541461049c57806395d89b41146104cc578063a217fddf146104ea576101e5565b80636352211e146103e65780636a6278421461041657806370a08231146104325780638456cb5914610462576101e5565b80632f2ff15d1161018757806342842e0e1161015657806342842e0e1461036057806342966c681461037c5780634f6ccce7146103985780635c975abb146103c8576101e5565b80632f2ff15d146102ee5780632f745c591461030a57806336568abe1461033a5780633f4ba83a14610356576101e5565b8063095ea7b3116101c3578063095ea7b31461026857806318160ddd1461028457806323b872dd146102a2578063248a9ca3146102be576101e5565b806301ffc9a7146101ea57806306fdde031461021a578063081812fc14610238575b600080fd5b61020460048036038101906101ff9190612ed9565b610628565b6040516102119190612f21565b60405180910390f35b61022261063a565b60405161022f9190612fd5565b60405180910390f35b610252600480360381019061024d919061302d565b6106cc565b60405161025f919061309b565b60405180910390f35b610282600480360381019061027d91906130e2565b610751565b005b61028c610869565b6040516102999190613131565b60405180910390f35b6102bc60048036038101906102b7919061314c565b610876565b005b6102d860048036038101906102d391906131d5565b6108d6565b6040516102e59190613211565b60405180910390f35b6103086004803603810190610303919061322c565b6108f5565b005b610324600480360381019061031f91906130e2565b61091e565b6040516103319190613131565b60405180910390f35b610354600480360381019061034f919061322c565b6109c3565b005b61035e610a46565b005b61037a6004803603810190610375919061314c565b610ac0565b005b6103966004803603810190610391919061302d565b610ae0565b005b6103b260048036038101906103ad919061302d565b610b3c565b6040516103bf9190613131565b60405180910390f35b6103d0610bad565b6040516103dd9190612f21565b60405180910390f35b61040060048036038101906103fb919061302d565b610bc4565b60405161040d919061309b565b60405180910390f35b610430600480360381019061042b919061326c565b610c76565b005b61044c6004803603810190610447919061326c565b610d06565b6040516104599190613131565b60405180910390f35b61046a610dbe565b005b61048660048036038101906104819190613299565b610e38565b604051610493919061309b565b60405180910390f35b6104b660048036038101906104b1919061322c565b610e67565b6040516104c39190612f21565b60405180910390f35b6104d4610ed1565b6040516104e19190612fd5565b60405180910390f35b6104f2610f63565b6040516104ff9190613211565b60405180910390f35b610522600480360381019061051d9190613305565b610f6a565b005b61053e6004803603810190610539919061347a565b610f80565b005b61055a6004803603810190610555919061302d565b610fe2565b6040516105679190612fd5565b60405180910390f35b61058a600480360381019061058591906131d5565b611089565b6040516105979190613131565b60405180910390f35b6105a86110ad565b6040516105b59190613211565b60405180910390f35b6105d860048036038101906105d3919061322c565b6110d1565b005b6105e26110fa565b6040516105ef9190613211565b60405180910390f35b610612600480360381019061060d91906134fd565b61111e565b60405161061f9190612f21565b60405180910390f35b6000610633826112c2565b9050919050565b6060600280546106499061356c565b80601f01602080910402602001604051908101604052809291908181526020018280546106759061356c565b80156106c25780601f10610697576101008083540402835291602001916106c2565b820191906000526020600020905b8154815290600101906020018083116106a557829003601f168201915b5050505050905090565b60006106d78261133c565b610716576040517f08c379a000000000000000000000000000000000000000000000000000000000815260040161070d90613610565b60405180910390fd5b6006600083815260200190815260200160002060009054906101000a900473ffffffffffffffffffffffffffffffffffffffff169050919050565b600061075c82610bc4565b90508073ffffffffffffffffffffffffffffffffffffffff168373ffffffffffffffffffffffffffffffffffffffff1614156107cd576040517f08c379a00000000000000000000000000000000000000000000000000000000081526004016107c4906136a2565b60405180910390fd5b8073ffffffffffffffffffffffffffffffffffffffff166107ec6113a8565b73ffffffffffffffffffffffffffffffffffffffff16148061081b575061081a816108156113a8565b61111e565b5b61085a576040517f08c379a000000000000000000000000000000000000000000000000000000000815260040161085190613734565b60405180910390fd5b61086483836113b0565b505050565b6000600a80549050905090565b6108876108816113a8565b82611469565b6108c6576040517f08c379a00000000000000000000000000000000000000000000000000000000081526004016108bd906137c6565b60405180910390fd5b6108d1838383611547565b505050565b6000806000838152602001908152602001600020600101549050919050565b6108fe826108d6565b61090f8161090a6113a8565b6117a3565b6109198383611840565b505050565b600061092983610d06565b821061096a576040517f08c379a000000000000000000000000000000000000000000000000000000000815260040161096190613858565b60405180910390fd5b600860008473ffffffffffffffffffffffffffffffffffffffff1673ffffffffffffffffffffffffffffffffffffffff168152602001908152602001600020600083815260200190815260200160002054905092915050565b6109cb6113a8565b73ffffffffffffffffffffffffffffffffffffffff168173ffffffffffffffffffffffffffffffffffffffff1614610a38576040517f08c379a0000000000000000000000000000000000000000000000000000000008152600401610a2f906138ea565b60405180910390fd5b610a428282611874565b5050565b610a777f65d7a28e3265b37a6474929f336521b332c1681b933f6cb9f3376673440d862a610a726113a8565b610e67565b610ab6576040517f08c379a0000000000000000000000000000000000000000000000000000000008152600401610aad9061397c565b60405180910390fd5b610abe6118a8565b565b610adb83838360405180602001604052806000815250610f80565b505050565b610af1610aeb6113a8565b82611469565b610b30576040517f08c379a0000000000000000000000000000000000000000000000000000000008152600401610b2790613a0e565b60405180910390fd5b610b398161194a565b50565b6000610b46610869565b8210610b87576040517f08c379a0000000000000000000000000000000000000000000000000000000008152600401610b7e90613aa0565b60405180910390fd5b600a8281548110610b9b57610b9a613ac0565b5b90600052602060002001549050919050565b6000600c60009054906101000a900460ff16905090565b6000806004600084815260200190815260200160002060009054906101000a900473ffffffffffffffffffffffffffffffffffffffff169050600073ffffffffffffffffffffffffffffffffffffffff168173ffffffffffffffffffffffffffffffffffffffff161415610c6d576040517f08c379a0000000000000000000000000000000000000000000000000000000008152600401610c6490613b61565b60405180910390fd5b80915050919050565b610ca77f9f2df0fed2c77648de5860a4cc508cd0818c85b8b8a1ab4ceeef8d981c8956a6610ca26113a8565b610e67565b610ce6576040517f08c379a0000000000000000000000000000000000000000000000000000000008152600401610cdd90613bf3565b60405180910390fd5b610cf981610cf4600d611a5b565b611a69565b610d03600d611c37565b50565b60008073ffffffffffffffffffffffffffffffffffffffff168273ffffffffffffffffffffffffffffffffffffffff161415610d77576040517f08c379a0000000000000000000000000000000000000000000000000000000008152600401610d6e90613c85565b60405180910390fd5b600560008373ffffffffffffffffffffffffffffffffffffffff1673ffffffffffffffffffffffffffffffffffffffff168152602001908152602001600020549050919050565b610def7f65d7a28e3265b37a6474929f336521b332c1681b933f6cb9f3376673440d862a610dea6113a8565b610e67565b610e2e576040517f08c379a0000000000000000000000000000000000000000000000000000000008152600401610e2590613d17565b60405180910390fd5b610e36611c4d565b565b6000610e5f8260016000868152602001908152602001600020611cf090919063ffffffff16565b905092915050565b600080600084815260200190815260200160002060000160008373ffffffffffffffffffffffffffffffffffffffff1673ffffffffffffffffffffffffffffffffffffffff16815260200190815260200160002060009054906101000a900460ff16905092915050565b606060038054610ee09061356c565b80601f0160208091040260200160405190810160405280929190818152602001828054610f0c9061356c565b8015610f595780601f10610f2e57610100808354040283529160200191610f59565b820191906000526020600020905b815481529060010190602001808311610f3c57829003601f168201915b5050505050905090565b6000801b81565b610f7c610f756113a8565b8383611d0a565b5050565b610f91610f8b6113a8565b83611469565b610fd0576040517f08c379a0000000000000000000000000000000000000000000000000000000008152600401610fc7906137c6565b60405180910390fd5b610fdc84848484611e77565b50505050565b6060610fed8261133c565b61102c576040517f08c379a000000000000000000000000000000000000000000000000000000000815260040161102390613da9565b60405180910390fd5b6000611036611ed3565b905060008151116110565760405180602001604052806000815250611081565b8061106084611f65565b604051602001611071929190613e05565b6040516020818303038152906040525b915050919050565b60006110a6600160008481526020019081526020016000206120c6565b9050919050565b7f9f2df0fed2c77648de5860a4cc508cd0818c85b8b8a1ab4ceeef8d981c8956a681565b6110da826108d6565b6110eb816110e66113a8565b6117a3565b6110f58383611874565b505050565b7f65d7a28e3265b37a6474929f336521b332c1681b933f6cb9f3376673440d862a81565b6000600760008473ffffffffffffffffffffffffffffffffffffffff1673ffffffffffffffffffffffffffffffffffffffff16815260200190815260200160002060008373ffffffffffffffffffffffffffffffffffffffff1673ffffffffffffffffffffffffffffffffffffffff16815260200190815260200160002060009054906101000a900460ff16905092915050565b6111bc8282610e67565b61128e57600160008084815260200190815260200160002060000160008373ffffffffffffffffffffffffffffffffffffffff1673ffffffffffffffffffffffffffffffffffffffff16815260200190815260200160002060006101000a81548160ff0219169083151502179055506112336113a8565b73ffffffffffffffffffffffffffffffffffffffff168173ffffffffffffffffffffffffffffffffffffffff16837f2f8788117e7eff1d82e926ec794901d17c78024a50270940304540a733656f0d60405160405180910390a45b5050565b60006112ba836000018373ffffffffffffffffffffffffffffffffffffffff1660001b6120db565b905092915050565b60007f780e9d63000000000000000000000000000000000000000000000000000000007bffffffffffffffffffffffffffffffffffffffffffffffffffffffff1916827bffffffffffffffffffffffffffffffffffffffffffffffffffffffff1916148061133557506113348261214b565b5b9050919050565b60008073ffffffffffffffffffffffffffffffffffffffff166004600084815260200190815260200160002060009054906101000a900473ffffffffffffffffffffffffffffffffffffffff1673ffffffffffffffffffffffffffffffffffffffff1614159050919050565b600033905090565b816006600083815260200190815260200160002060006101000a81548173ffffffffffffffffffffffffffffffffffffffff021916908373ffffffffffffffffffffffffffffffffffffffff160217905550808273ffffffffffffffffffffffffffffffffffffffff1661142383610bc4565b73ffffffffffffffffffffffffffffffffffffffff167f8c5be1e5ebec7d5bd14f71427d1e84f3dd0314c0f7b2291e5b200ac8c7c3b92560405160405180910390a45050565b60006114748261133c565b6114b3576040517f08c379a00000000000000000000000000000000000000000000000000000000081526004016114aa90613e9b565b60405180910390fd5b60006114be83610bc4565b90508073ffffffffffffffffffffffffffffffffffffffff168473ffffffffffffffffffffffffffffffffffffffff16148061152d57508373ffffffffffffffffffffffffffffffffffffffff16611515846106cc565b73ffffffffffffffffffffffffffffffffffffffff16145b8061153e575061153d818561111e565b5b91505092915050565b8273ffffffffffffffffffffffffffffffffffffffff1661156782610bc4565b73ffffffffffffffffffffffffffffffffffffffff16146115bd576040517f08c379a00000000000000000000000000000000000000000000000000000000081526004016115b490613f2d565b60405180910390fd5b600073ffffffffffffffffffffffffffffffffffffffff168273ffffffffffffffffffffffffffffffffffffffff16141561162d576040517f08c379a000000000000000000000000000000000000000000000000000000000815260040161162490613fbf565b60405180910390fd5b61163883838361222d565b6116436000826113b0565b6001600560008573ffffffffffffffffffffffffffffffffffffffff1673ffffffffffffffffffffffffffffffffffffffff1681526020019081526020016000206000828254611693919061400e565b925050819055506001600560008473ffffffffffffffffffffffffffffffffffffffff1673ffffffffffffffffffffffffffffffffffffffff16815260200190815260200160002060008282546116ea9190614042565b92505081905550816004600083815260200190815260200160002060006101000a81548173ffffffffffffffffffffffffffffffffffffffff021916908373ffffffffffffffffffffffffffffffffffffffff160217905550808273ffffffffffffffffffffffffffffffffffffffff168473ffffffffffffffffffffffffffffffffffffffff167fddf252ad1be2c89b69c2b068fc378daa952ba7f163c4a11628f55a4df523b3ef60405160405180910390a4505050565b6117ad8282610e67565b61183c576117d28173ffffffffffffffffffffffffffffffffffffffff16601461223d565b6117e08360001c602061223d565b6040516020016117f1929190614130565b6040516020818303038152906040526040517f08c379a00000000000000000000000000000000000000000000000000000000081526004016118339190612fd5565b60405180910390fd5b5050565b61184a82826111b2565b61186f816001600085815260200190815260200160002061129290919063ffffffff16565b505050565b61187e8282612479565b6118a3816001600085815260200190815260200160002061255a90919063ffffffff16565b505050565b6118b0610bad565b6118ef576040517f08c379a00000000000000000000000000000000000000000000000000000000081526004016118e6906141b6565b60405180910390fd5b6000600c60006101000a81548160ff0219169083151502179055507f5db9ee0a495bf2e6ff9c91a7834c1ba4fdd244a5e8aa4e537bd38aeae4b073aa6119336113a8565b604051611940919061309b565b60405180910390a1565b600061195582610bc4565b90506119638160008461222d565b61196e6000836113b0565b6001600560008373ffffffffffffffffffffffffffffffffffffffff1673ffffffffffffffffffffffffffffffffffffffff16815260200190815260200160002060008282546119be919061400e565b925050819055506004600083815260200190815260200160002060006101000a81549073ffffffffffffffffffffffffffffffffffffffff021916905581600073ffffffffffffffffffffffffffffffffffffffff168273ffffffffffffffffffffffffffffffffffffffff167fddf252ad1be2c89b69c2b068fc378daa952ba7f163c4a11628f55a4df523b3ef60405160405180910390a45050565b600081600001549050919050565b600073ffffffffffffffffffffffffffffffffffffffff168273ffffffffffffffffffffffffffffffffffffffff161415611ad9576040517f08c379a0000000000000000000000000000000000000000000000000000000008152600401611ad090614222565b60405180910390fd5b611ae28161133c565b15611b22576040517f08c379a0000000000000000000000000000000000000000000000000000000008152600401611b199061428e565b60405180910390fd5b611b2e6000838361222d565b6001600560008473ffffffffffffffffffffffffffffffffffffffff1673ffffffffffffffffffffffffffffffffffffffff1681526020019081526020016000206000828254611b7e9190614042565b92505081905550816004600083815260200190815260200160002060006101000a81548173ffffffffffffffffffffffffffffffffffffffff021916908373ffffffffffffffffffffffffffffffffffffffff160217905550808273ffffffffffffffffffffffffffffffffffffffff16600073ffffffffffffffffffffffffffffffffffffffff167fddf252ad1be2c89b69c2b068fc378daa952ba7f163c4a11628f55a4df523b3ef60405160405180910390a45050565b6001816000016000828254019250508190555050565b611c55610bad565b15611c95576040517f08c379a0000000000000000000000000000000000000000000000000000000008152600401611c8c906142fa565b60405180910390fd5b6001600c60006101000a81548160ff0219169083151502179055507f62e78cea01bee320cd4e420270b5ea74000d11b0c9f74754ebdbfc544b05a258611cd96113a8565b604051611ce6919061309b565b60405180910390a1565b6000611cff836000018361258a565b60001c905092915050565b8173ffffffffffffffffffffffffffffffffffffffff168373ffffffffffffffffffffffffffffffffffffffff161415611d79576040517f08c379a0000000000000000000000000000000000000000000000000000000008152600401611d7090614366565b60405180910390fd5b80600760008573ffffffffffffffffffffffffffffffffffffffff1673ffffffffffffffffffffffffffffffffffffffff16815260200190815260200160002060008473ffffffffffffffffffffffffffffffffffffffff1673ffffffffffffffffffffffffffffffffffffffff16815260200190815260200160002060006101000a81548160ff0219169083151502179055508173ffffffffffffffffffffffffffffffffffffffff168373ffffffffffffffffffffffffffffffffffffffff167f17307eab39ab6107e8899845ad3d59bd9653f200f220920489ca2b5937696c3183604051611e6a9190612f21565b60405180910390a3505050565b611e82848484611547565b611e8e848484846125b5565b611ecd576040517f08c379a0000000000000000000000000000000000000000000000000000000008152600401611ec4906143f8565b60405180910390fd5b50505050565b6060600e8054611ee29061356c565b80601f0160208091040260200160405190810160405280929190818152602001828054611f0e9061356c565b8015611f5b5780601f10611f3057610100808354040283529160200191611f5b565b820191906000526020600020905b815481529060010190602001808311611f3e57829003601f168201915b5050505050905090565b60606000821415611fad576040518060400160405280600181526020017f300000000000000000000000000000000000000000000000000000000000000081525090506120c1565b600082905060005b60008214611fdf578080611fc890614418565b915050600a82611fd89190614490565b9150611fb5565b60008167ffffffffffffffff811115611ffb57611ffa61334f565b5b6040519080825280601f01601f19166020018201604052801561202d5781602001600182028036833780820191505090505b5090505b600085146120ba57600182612046919061400e565b9150600a8561205591906144c1565b60306120619190614042565b60f81b81838151811061207757612076613ac0565b5b60200101907effffffffffffffffffffffffffffffffffffffffffffffffffffffffffffff1916908160001a905350600a856120b39190614490565b9450612031565b8093505050505b919050565b60006120d48260000161273d565b9050919050565b60006120e7838361274e565b612140578260000182908060018154018082558091505060019003906000526020600020016000909190919091505582600001805490508360010160008481526020019081526020016000208190555060019050612145565b600090505b92915050565b60007f80ac58cd000000000000000000000000000000000000000000000000000000007bffffffffffffffffffffffffffffffffffffffffffffffffffffffff1916827bffffffffffffffffffffffffffffffffffffffffffffffffffffffff1916148061221657507f5b5e139f000000000000000000000000000000000000000000000000000000007bffffffffffffffffffffffffffffffffffffffffffffffffffffffff1916827bffffffffffffffffffffffffffffffffffffffffffffffffffffffff1916145b80612226575061222582612771565b5b9050919050565b6122388383836127eb565b505050565b60606000600283600261225091906144f2565b61225a9190614042565b67ffffffffffffffff8111156122735761227261334f565b5b6040519080825280601f01601f1916602001820160405280156122a55781602001600182028036833780820191505090505b5090507f3000000000000000000000000000000000000000000000000000000000000000816000815181106122dd576122dc613ac0565b5b60200101907effffffffffffffffffffffffffffffffffffffffffffffffffffffffffffff1916908160001a9053507f78000000000000000000000000000000000000000000000000000000000000008160018151811061234157612340613ac0565b5b60200101907effffffffffffffffffffffffffffffffffffffffffffffffffffffffffffff1916908160001a9053506000600184600261238191906144f2565b61238b9190614042565b90505b600181111561242b577f3031323334353637383961626364656600000000000000000000000000000000600f8616601081106123cd576123cc613ac0565b5b1a60f81b8282815181106123e4576123e3613ac0565b5b60200101907effffffffffffffffffffffffffffffffffffffffffffffffffffffffffffff1916908160001a905350600485901c9450806124249061454c565b905061238e565b506000841461246f576040517f08c379a0000000000000000000000000000000000000000000000000000000008152600401612466906145c2565b60405180910390fd5b8091505092915050565b6124838282610e67565b1561255657600080600084815260200190815260200160002060000160008373ffffffffffffffffffffffffffffffffffffffff1673ffffffffffffffffffffffffffffffffffffffff16815260200190815260200160002060006101000a81548160ff0219169083151502179055506124fb6113a8565b73ffffffffffffffffffffffffffffffffffffffff168173ffffffffffffffffffffffffffffffffffffffff16837ff6391f5c32d9c69d2a47ea670b442974b53935d1edc7fd64eb21e047a839171b60405160405180910390a45b5050565b6000612582836000018373ffffffffffffffffffffffffffffffffffffffff1660001b612843565b905092915050565b60008260000182815481106125a2576125a1613ac0565b5b9060005260206000200154905092915050565b60006125d68473ffffffffffffffffffffffffffffffffffffffff16612957565b15612730578373ffffffffffffffffffffffffffffffffffffffff1663150b7a026125ff6113a8565b8786866040518563ffffffff1660e01b81526004016126219493929190614637565b6020604051808303816000875af192505050801561265d57506040513d601f19601f8201168201806040525081019061265a9190614698565b60015b6126e0573d806000811461268d576040519150601f19603f3d011682016040523d82523d6000602084013e612692565b606091505b506000815114156126d8576040517f08c379a00000000000000000000000000000000000000000000000000000000081526004016126cf906143f8565b60405180910390fd5b805181602001fd5b63150b7a0260e01b7bffffffffffffffffffffffffffffffffffffffffffffffffffffffff1916817bffffffffffffffffffffffffffffffffffffffffffffffffffffffff191614915050612735565b600190505b949350505050565b600081600001805490509050919050565b600080836001016000848152602001908152602001600020541415905092915050565b60007f5a05180f000000000000000000000000000000000000000000000000000000007bffffffffffffffffffffffffffffffffffffffffffffffffffffffff1916827bffffffffffffffffffffffffffffffffffffffffffffffffffffffff191614806127e457506127e38261296a565b5b9050919050565b6127f68383836129e4565b6127fe610bad565b1561283e576040517f08c379a000000000000000000000000000000000000000000000000000000000815260040161283590614737565b60405180910390fd5b505050565b6000808360010160008481526020019081526020016000205490506000811461294b576000600182612875919061400e565b905060006001866000018054905061288d919061400e565b90508181146128fc5760008660000182815481106128ae576128ad613ac0565b5b90600052602060002001549050808760000184815481106128d2576128d1613ac0565b5b90600052602060002001819055508387600101600083815260200190815260200160002081905550505b856000018054806129105761290f614757565b5b600190038181906000526020600020016000905590558560010160008681526020019081526020016000206000905560019350505050612951565b60009150505b92915050565b600080823b905060008111915050919050565b60007f7965db0b000000000000000000000000000000000000000000000000000000007bffffffffffffffffffffffffffffffffffffffffffffffffffffffff1916827bffffffffffffffffffffffffffffffffffffffffffffffffffffffff191614806129dd57506129dc82612af8565b5b9050919050565b6129ef838383612b62565b600073ffffffffffffffffffffffffffffffffffffffff168373ffffffffffffffffffffffffffffffffffffffff161415612a3257612a2d81612b67565b612a71565b8173ffffffffffffffffffffffffffffffffffffffff168373ffffffffffffffffffffffffffffffffffffffff1614612a7057612a6f8382612bb0565b5b5b600073ffffffffffffffffffffffffffffffffffffffff168273ffffffffffffffffffffffffffffffffffffffff161415612ab457612aaf81612d1d565b612af3565b8273ffffffffffffffffffffffffffffffffffffffff168273ffffffffffffffffffffffffffffffffffffffff1614612af257612af18282612dee565b5b5b505050565b60007f01ffc9a7000000000000000000000000000000000000000000000000000000007bffffffffffffffffffffffffffffffffffffffffffffffffffffffff1916827bffffffffffffffffffffffffffffffffffffffffffffffffffffffff1916149050919050565b505050565b600a80549050600b600083815260200190815260200160002081905550600a81908060018154018082558091505060019003906000526020600020016000909190919091505550565b60006001612bbd84610d06565b612bc7919061400e565b9050600060096000848152602001908152602001600020549050818114612cac576000600860008673ffffffffffffffffffffffffffffffffffffffff1673ffffffffffffffffffffffffffffffffffffffff168152602001908152602001600020600084815260200190815260200160002054905080600860008773ffffffffffffffffffffffffffffffffffffffff1673ffffffffffffffffffffffffffffffffffffffff168152602001908152602001600020600084815260200190815260200160002081905550816009600083815260200190815260200160002081905550505b6009600084815260200190815260200160002060009055600860008573ffffffffffffffffffffffffffffffffffffffff1673ffffffffffffffffffffffffffffffffffffffff16815260200190815260200160002060008381526020019081526020016000206000905550505050565b60006001600a80549050612d31919061400e565b90506000600b60008481526020019081526020016000205490506000600a8381548110612d6157612d60613ac0565b5b9060005260206000200154905080600a8381548110612d8357612d82613ac0565b5b906000526020600020018190555081600b600083815260200190815260200160002081905550600b600085815260200190815260200160002060009055600a805480612dd257612dd1614757565b5b6001900381819060005260206000200160009055905550505050565b6000612df983610d06565b905081600860008573ffffffffffffffffffffffffffffffffffffffff1673ffffffffffffffffffffffffffffffffffffffff168152602001908152602001600020600083815260200190815260200160002081905550806009600084815260200190815260200160002081905550505050565b6000604051905090565b600080fd5b600080fd5b60007fffffffff0000000000000000000000000000000000000000000000000000000082169050919050565b612eb681612e81565b8114612ec157600080fd5b50565b600081359050612ed381612ead565b92915050565b600060208284031215612eef57612eee612e77565b5b6000612efd84828501612ec4565b91505092915050565b60008115159050919050565b612f1b81612f06565b82525050565b6000602082019050612f366000830184612f12565b92915050565b600081519050919050565b600082825260208201905092915050565b60005b83811015612f76578082015181840152602081019050612f5b565b83811115612f85576000848401525b50505050565b6000601f19601f8301169050919050565b6000612fa782612f3c565b612fb18185612f47565b9350612fc1818560208601612f58565b612fca81612f8b565b840191505092915050565b60006020820190508181036000830152612fef8184612f9c565b905092915050565b6000819050919050565b61300a81612ff7565b811461301557600080fd5b50565b60008135905061302781613001565b92915050565b60006020828403121561304357613042612e77565b5b600061305184828501613018565b91505092915050565b600073ffffffffffffffffffffffffffffffffffffffff82169050919050565b60006130858261305a565b9050919050565b6130958161307a565b82525050565b60006020820190506130b0600083018461308c565b92915050565b6130bf8161307a565b81146130ca57600080fd5b50565b6000813590506130dc816130b6565b92915050565b600080604083850312156130f9576130f8612e77565b5b6000613107858286016130cd565b925050602061311885828601613018565b9150509250929050565b61312b81612ff7565b82525050565b60006020820190506131466000830184613122565b92915050565b60008060006060848603121561316557613164612e77565b5b6000613173868287016130cd565b9350506020613184868287016130cd565b925050604061319586828701613018565b9150509250925092565b6000819050919050565b6131b28161319f565b81146131bd57600080fd5b50565b6000813590506131cf816131a9565b92915050565b6000602082840312156131eb576131ea612e77565b5b60006131f9848285016131c0565b91505092915050565b61320b8161319f565b82525050565b60006020820190506132266000830184613202565b92915050565b6000806040838503121561324357613242612e77565b5b6000613251858286016131c0565b9250506020613262858286016130cd565b9150509250929050565b60006020828403121561328257613281612e77565b5b6000613290848285016130cd565b91505092915050565b600080604083850312156132b0576132af612e77565b5b60006132be858286016131c0565b92505060206132cf85828601613018565b9150509250929050565b6132e281612f06565b81146132ed57600080fd5b50565b6000813590506132ff816132d9565b92915050565b6000806040838503121561331c5761331b612e77565b5b600061332a858286016130cd565b925050602061333b858286016132f0565b9150509250929050565b600080fd5b600080fd5b7f4e487b7100000000000000000000000000000000000000000000000000000000600052604160045260246000fd5b61338782612f8b565b810181811067ffffffffffffffff821117156133a6576133a561334f565b5b80604052505050565b60006133b9612e6d565b90506133c5828261337e565b919050565b600067ffffffffffffffff8211156133e5576133e461334f565b5b6133ee82612f8b565b9050602081019050919050565b82818337600083830152505050565b600061341d613418846133ca565b6133af565b9050828152602081018484840111156134395761343861334a565b5b6134448482856133fb565b509392505050565b600082601f83011261346157613460613345565b5b813561347184826020860161340a565b91505092915050565b6000806000806080858703121561349457613493612e77565b5b60006134a2878288016130cd565b94505060206134b3878288016130cd565b93505060406134c487828801613018565b925050606085013567ffffffffffffffff8111156134e5576134e4612e7c565b5b6134f18782880161344c565b91505092959194509250565b6000806040838503121561351457613513612e77565b5b6000613522858286016130cd565b9250506020613533858286016130cd565b9150509250929050565b7f4e487b7100000000000000000000000000000000000000000000000000000000600052602260045260246000fd5b6000600282049050600182168061358457607f821691505b602082108114156135985761359761353d565b5b50919050565b7f4552433732313a20617070726f76656420717565727920666f72206e6f6e657860008201527f697374656e7420746f6b656e0000000000000000000000000000000000000000602082015250565b60006135fa602c83612f47565b91506136058261359e565b604082019050919050565b60006020820190508181036000830152613629816135ed565b9050919050565b7f4552433732313a20617070726f76616c20746f2063757272656e74206f776e6560008201527f7200000000000000000000000000000000000000000000000000000000000000602082015250565b600061368c602183612f47565b915061369782613630565b604082019050919050565b600060208201905081810360008301526136bb8161367f565b9050919050565b7f4552433732313a20617070726f76652063616c6c6572206973206e6f74206f7760008201527f6e6572206e6f7220617070726f76656420666f7220616c6c0000000000000000602082015250565b600061371e603883612f47565b9150613729826136c2565b604082019050919050565b6000602082019050818103600083015261374d81613711565b9050919050565b7f4552433732313a207472616e736665722063616c6c6572206973206e6f74206f60008201527f776e6572206e6f7220617070726f766564000000000000000000000000000000602082015250565b60006137b0603183612f47565b91506137bb82613754565b604082019050919050565b600060208201905081810360008301526137df816137a3565b9050919050565b7f455243373231456e756d657261626c653a206f776e657220696e646578206f7560008201527f74206f6620626f756e6473000000000000000000000000000000000000000000602082015250565b6000613842602b83612f47565b915061384d826137e6565b604082019050919050565b6000602082019050818103600083015261387181613835565b9050919050565b7f416363657373436f6e74726f6c3a2063616e206f6e6c792072656e6f756e636560008201527f20726f6c657320666f722073656c660000000000000000000000000000000000602082015250565b60006138d4602f83612f47565b91506138df82613878565b604082019050919050565b60006020820190508181036000830152613903816138c7565b9050919050565b7f4552433732315072657365744d696e7465725061757365724175746f49643a2060008201527f6d75737420686176652070617573657220726f6c6520746f20756e7061757365602082015250565b6000613966604083612f47565b91506139718261390a565b604082019050919050565b6000602082019050818103600083015261399581613959565b9050919050565b7f4552433732314275726e61626c653a2063616c6c6572206973206e6f74206f7760008201527f6e6572206e6f7220617070726f76656400000000000000000000000000000000602082015250565b60006139f8603083612f47565b9150613a038261399c565b604082019050919050565b60006020820190508181036000830152613a27816139eb565b9050919050565b7f455243373231456e756d657261626c653a20676c6f62616c20696e646578206f60008201527f7574206f6620626f756e64730000000000000000000000000000000000000000602082015250565b6000613a8a602c83612f47565b9150613a9582613a2e565b604082019050919050565b60006020820190508181036000830152613ab981613a7d565b9050919050565b7f4e487b7100000000000000000000000000000000000000000000000000000000600052603260045260246000fd5b7f4552433732313a206f776e657220717565727920666f72206e6f6e657869737460008201527f656e7420746f6b656e0000000000000000000000000000000000000000000000602082015250565b6000613b4b602983612f47565b9150613b5682613aef565b604082019050919050565b60006020820190508181036000830152613b7a81613b3e565b9050919050565b7f4552433732315072657365744d696e7465725061757365724175746f49643a2060008201527f6d7573742068617665206d696e74657220726f6c6520746f206d696e74000000602082015250565b6000613bdd603d83612f47565b9150613be882613b81565b604082019050919050565b60006020820190508181036000830152613c0c81613bd0565b9050919050565b7f4552433732313a2062616c616e636520717565727920666f7220746865207a6560008201527f726f206164647265737300000000000000000000000000000000000000000000602082015250565b6000613c6f602a83612f47565b9150613c7a82613c13565b604082019050919050565b60006020820190508181036000830152613c9e81613c62565b9050919050565b7f4552433732315072657365744d696e7465725061757365724175746f49643a2060008201527f6d75737420686176652070617573657220726f6c6520746f2070617573650000602082015250565b6000613d01603e83612f47565b9150613d0c82613ca5565b604082019050919050565b60006020820190508181036000830152613d3081613cf4565b9050919050565b7f4552433732314d657461646174613a2055524920717565727920666f72206e6f60008201527f6e6578697374656e7420746f6b656e0000000000000000000000000000000000602082015250565b6000613d93602f83612f47565b9150613d9e82613d37565b604082019050919050565b60006020820190508181036000830152613dc281613d86565b9050919050565b600081905092915050565b6000613ddf82612f3c565b613de98185613dc9565b9350613df9818560208601612f58565b80840191505092915050565b6000613e118285613dd4565b9150613e1d8284613dd4565b91508190509392505050565b7f4552433732313a206f70657261746f7220717565727920666f72206e6f6e657860008201527f697374656e7420746f6b656e0000000000000000000000000000000000000000602082015250565b6000613e85602c83612f47565b9150613e9082613e29565b604082019050919050565b60006020820190508181036000830152613eb481613e78565b9050919050565b7f4552433732313a207472616e73666572206f6620746f6b656e2074686174206960008201527f73206e6f74206f776e0000000000000000000000000000000000000000000000602082015250565b6000613f17602983612f47565b9150613f2282613ebb565b604082019050919050565b60006020820190508181036000830152613f4681613f0a565b9050919050565b7f4552433732313a207472616e7366657220746f20746865207a65726f2061646460008201527f7265737300000000000000000000000000000000000000000000000000000000602082015250565b6000613fa9602483612f47565b9150613fb482613f4d565b604082019050919050565b60006020820190508181036000830152613fd881613f9c565b9050919050565b7f4e487b7100000000000000000000000000000000000000000000000000000000600052601160045260246000fd5b600061401982612ff7565b915061402483612ff7565b92508282101561403757614036613fdf565b5b828203905092915050565b600061404d82612ff7565b915061405883612ff7565b9250827fffffffffffffffffffffffffffffffffffffffffffffffffffffffffffffffff0382111561408d5761408c613fdf565b5b828201905092915050565b7f416363657373436f6e74726f6c3a206163636f756e7420000000000000000000600082015250565b60006140ce601783613dc9565b91506140d982614098565b601782019050919050565b7f206973206d697373696e6720726f6c6520000000000000000000000000000000600082015250565b600061411a601183613dc9565b9150614125826140e4565b601182019050919050565b600061413b826140c1565b91506141478285613dd4565b91506141528261410d565b915061415e8284613dd4565b91508190509392505050565b7f5061757361626c653a206e6f7420706175736564000000000000000000000000600082015250565b60006141a0601483612f47565b91506141ab8261416a565b602082019050919050565b600060208201905081810360008301526141cf81614193565b9050919050565b7f4552433732313a206d696e7420746f20746865207a65726f2061646472657373600082015250565b600061420c602083612f47565b9150614217826141d6565b602082019050919050565b6000602082019050818103600083015261423b816141ff565b9050919050565b7f4552433732313a20746f6b656e20616c7265616479206d696e74656400000000600082015250565b6000614278601c83612f47565b915061428382614242565b602082019050919050565b600060208201905081810360008301526142a78161426b565b9050919050565b7f5061757361626c653a2070617573656400000000000000000000000000000000600082015250565b60006142e4601083612f47565b91506142ef826142ae565b602082019050919050565b60006020820190508181036000830152614313816142d7565b9050919050565b7f4552433732313a20617070726f766520746f2063616c6c657200000000000000600082015250565b6000614350601983612f47565b915061435b8261431a565b602082019050919050565b6000602082019050818103600083015261437f81614343565b9050919050565b7f4552433732313a207472616e7366657220746f206e6f6e20455243373231526560008201527f63656976657220696d706c656d656e7465720000000000000000000000000000602082015250565b60006143e2603283612f47565b91506143ed82614386565b604082019050919050565b60006020820190508181036000830152614411816143d5565b9050919050565b600061442382612ff7565b91507fffffffffffffffffffffffffffffffffffffffffffffffffffffffffffffffff82141561445657614455613fdf565b5b600182019050919050565b7f4e487b7100000000000000000000000000000000000000000000000000000000600052601260045260246000fd5b600061449b82612ff7565b91506144a683612ff7565b9250826144b6576144b5614461565b5b828204905092915050565b60006144cc82612ff7565b91506144d783612ff7565b9250826144e7576144e6614461565b5b828206905092915050565b60006144fd82612ff7565b915061450883612ff7565b9250817fffffffffffffffffffffffffffffffffffffffffffffffffffffffffffffffff048311821515161561454157614540613fdf565b5b828202905092915050565b600061455782612ff7565b9150600082141561456b5761456a613fdf565b5b600182039050919050565b7f537472696e67733a20686578206c656e67746820696e73756666696369656e74600082015250565b60006145ac602083612f47565b91506145b782614576565b602082019050919050565b600060208201905081810360008301526145db8161459f565b9050919050565b600081519050919050565b600082825260208201905092915050565b6000614609826145e2565b61461381856145ed565b9350614623818560208601612f58565b61462c81612f8b565b840191505092915050565b600060808201905061464c600083018761308c565b614659602083018661308c565b6146666040830185613122565b818103606083015261467881846145fe565b905095945050505050565b60008151905061469281612ead565b92915050565b6000602082840312156146ae576146ad612e77565b5b60006146bc84828501614683565b91505092915050565b7f4552433732315061757361626c653a20746f6b656e207472616e73666572207760008201527f68696c6520706175736564000000000000000000000000000000000000000000602082015250565b6000614721602b83612f47565b915061472c826146c5565b604082019050919050565b6000602082019050818103600083015261475081614714565b9050919050565b7f4e487b7100000000000000000000000000000000000000000000000000000000600052603160045260246000fdfea2646970667358221220665328943dba32deeeccae5edcfcca9ea3d88ac15067f8608021efeaac230c6164736f6c634300080a0033",
  "immutableReferences": {},
  "source": "// SPDX-License-Identifier: MIT\n// OpenZeppelin Contracts v4.4.0 (token/ERC721/presets/ERC721PresetMinterPauserAutoId.sol)\n\npragma solidity ^0.8.0;\n\nimport \"../ERC721.sol\";\nimport \"../extensions/ERC721Enumerable.sol\";\nimport \"../extensions/ERC721Burnable.sol\";\nimport \"../extensions/ERC721Pausable.sol\";\nimport \"../../../access/AccessControlEnumerable.sol\";\nimport \"../../../utils/Context.sol\";\nimport \"../../../utils/Counters.sol\";\n\n/**\n * @dev {ERC721} token, including:\n *\n *  - ability for holders to burn (destroy) their tokens\n *  - a minter role that allows for token minting (creation)\n *  - a pauser role that allows to stop all token transfers\n *  - token ID and URI autogeneration\n *\n * This contract uses {AccessControl} to lock permissioned functions using the\n * different roles - head to its documentation for details.\n *\n * The account that deploys the contract will be granted the minter and pauser\n * roles, as well as the default admin role, which will let it grant both minter\n * and pauser roles to other accounts.\n */\ncontract ERC721PresetMinterPauserAutoId is\n    Context,\n    AccessControlEnumerable,\n    ERC721Enumerable,\n    ERC721Burnable,\n    ERC721Pausable\n{\n    using Counters for Counters.Counter;\n\n    bytes32 public constant MINTER_ROLE = keccak256(\"MINTER_ROLE\");\n    bytes32 public constant PAUSER_ROLE = keccak256(\"PAUSER_ROLE\");\n\n    Counters.Counter private _tokenIdTracker;\n\n    string private _baseTokenURI;\n\n    /**\n     * @dev Grants `DEFAULT_ADMIN_ROLE`, `MINTER_ROLE` and `PAUSER_ROLE` to the\n     * account that deploys the contract.\n     *\n     * Token URIs will be autogenerated based on `baseURI` and their token IDs.\n     * See {ERC721-tokenURI}.\n     */\n    constructor(\n        string memory name,\n        string memory symbol,\n        string memory baseTokenURI\n    ) ERC721(name, symbol) {\n        _baseTokenURI = baseTokenURI;\n\n        _setupRole(DEFAULT_ADMIN_ROLE, _msgSender());\n\n        _setupRole(MINTER_ROLE, _msgSender());\n        _setupRole(PAUSER_ROLE, _msgSender());\n    }\n\n    function _baseURI() internal view virtual override returns (string memory) {\n        return _baseTokenURI;\n    }\n\n    /**\n     * @dev Creates a new token for `to`. Its token ID will be automatically\n     * assigned (and available on the emitted {IERC721-Transfer} event), and the token\n     * URI autogenerated based on the base URI passed at construction.\n     *\n     * See {ERC721-_mint}.\n     *\n     * Requirements:\n     *\n     * - the caller must have the `MINTER_ROLE`.\n     */\n    function mint(address to) public virtual {\n        require(hasRole(MINTER_ROLE, _msgSender()), \"ERC721PresetMinterPauserAutoId: must have minter role to mint\");\n\n        // We cannot just use balanceOf to create the new tokenId because tokens\n        // can be burned (destroyed), so we need a separate counter.\n        _mint(to, _tokenIdTracker.current());\n        _tokenIdTracker.increment();\n    }\n\n    /**\n     * @dev Pauses all token transfers.\n     *\n     * See {ERC721Pausable} and {Pausable-_pause}.\n     *\n     * Requirements:\n     *\n     * - the caller must have the `PAUSER_ROLE`.\n     */\n    function pause() public virtual {\n        require(hasRole(PAUSER_ROLE, _msgSender()), \"ERC721PresetMinterPauserAutoId: must have pauser role to pause\");\n        _pause();\n    }\n\n    /**\n     * @dev Unpauses all token transfers.\n     *\n     * See {ERC721Pausable} and {Pausable-_unpause}.\n     *\n     * Requirements:\n     *\n     * - the caller must have the `PAUSER_ROLE`.\n     */\n    function unpause() public virtual {\n        require(hasRole(PAUSER_ROLE, _msgSender()), \"ERC721PresetMinterPauserAutoId: must have pauser role to unpause\");\n        _unpause();\n    }\n\n    function _beforeTokenTransfer(\n        address from,\n        address to,\n        uint256 tokenId\n    ) internal virtual override(ERC721, ERC721Enumerable, ERC721Pausable) {\n        super._beforeTokenTransfer(from, to, tokenId);\n    }\n\n    /**\n     * @dev See {IERC165-supportsInterface}.\n     */\n    function supportsInterface(bytes4 interfaceId)\n        public\n        view\n        virtual\n        override(AccessControlEnumerable, ERC721, ERC721Enumerable)\n        returns (bool)\n    {\n        return super.supportsInterface(interfaceId);\n    }\n}\n",
  "sourcePath": "/Users/bienpx224/Desktop/Solidity/MetaScence/contracts/@openzeppelin/contracts/token/ERC721/presets/ERC721PresetMinterPauserAutoId.sol",
  "compiler": {
    "name": "solc",
    "version": "0.8.10+commit.fc410830.Emscripten.clang"
  },
  "schemaVersion": "3.4.3",
  "updatedAt": "2021-12-17T06:48:58.458Z",
  "devdoc": {
    "details": "{ERC721} token, including:  - ability for holders to burn (destroy) their tokens  - a minter role that allows for token minting (creation)  - a pauser role that allows to stop all token transfers  - token ID and URI autogeneration This contract uses {AccessControl} to lock permissioned functions using the different roles - head to its documentation for details. The account that deploys the contract will be granted the minter and pauser roles, as well as the default admin role, which will let it grant both minter and pauser roles to other accounts.",
    "kind": "dev",
    "methods": {
      "approve(address,uint256)": {
        "details": "See {IERC721-approve}."
      },
      "balanceOf(address)": {
        "details": "See {IERC721-balanceOf}."
      },
      "burn(uint256)": {
        "details": "Burns `tokenId`. See {ERC721-_burn}. Requirements: - The caller must own `tokenId` or be an approved operator."
      },
      "constructor": {
        "details": "Grants `DEFAULT_ADMIN_ROLE`, `MINTER_ROLE` and `PAUSER_ROLE` to the account that deploys the contract. Token URIs will be autogenerated based on `baseURI` and their token IDs. See {ERC721-tokenURI}."
      },
      "getApproved(uint256)": {
        "details": "See {IERC721-getApproved}."
      },
      "getRoleAdmin(bytes32)": {
        "details": "Returns the admin role that controls `role`. See {grantRole} and {revokeRole}. To change a role's admin, use {_setRoleAdmin}."
      },
      "getRoleMember(bytes32,uint256)": {
        "details": "Returns one of the accounts that have `role`. `index` must be a value between 0 and {getRoleMemberCount}, non-inclusive. Role bearers are not sorted in any particular way, and their ordering may change at any point. WARNING: When using {getRoleMember} and {getRoleMemberCount}, make sure you perform all queries on the same block. See the following https://forum.openzeppelin.com/t/iterating-over-elements-on-enumerableset-in-openzeppelin-contracts/2296[forum post] for more information."
      },
      "getRoleMemberCount(bytes32)": {
        "details": "Returns the number of accounts that have `role`. Can be used together with {getRoleMember} to enumerate all bearers of a role."
      },
      "grantRole(bytes32,address)": {
        "details": "Grants `role` to `account`. If `account` had not been already granted `role`, emits a {RoleGranted} event. Requirements: - the caller must have ``role``'s admin role."
      },
      "hasRole(bytes32,address)": {
        "details": "Returns `true` if `account` has been granted `role`."
      },
      "isApprovedForAll(address,address)": {
        "details": "See {IERC721-isApprovedForAll}."
      },
      "mint(address)": {
        "details": "Creates a new token for `to`. Its token ID will be automatically assigned (and available on the emitted {IERC721-Transfer} event), and the token URI autogenerated based on the base URI passed at construction. See {ERC721-_mint}. Requirements: - the caller must have the `MINTER_ROLE`."
      },
      "name()": {
        "details": "See {IERC721Metadata-name}."
      },
      "ownerOf(uint256)": {
        "details": "See {IERC721-ownerOf}."
      },
      "pause()": {
        "details": "Pauses all token transfers. See {ERC721Pausable} and {Pausable-_pause}. Requirements: - the caller must have the `PAUSER_ROLE`."
      },
      "paused()": {
        "details": "Returns true if the contract is paused, and false otherwise."
      },
      "renounceRole(bytes32,address)": {
        "details": "Revokes `role` from the calling account. Roles are often managed via {grantRole} and {revokeRole}: this function's purpose is to provide a mechanism for accounts to lose their privileges if they are compromised (such as when a trusted device is misplaced). If the calling account had been revoked `role`, emits a {RoleRevoked} event. Requirements: - the caller must be `account`."
      },
      "revokeRole(bytes32,address)": {
        "details": "Revokes `role` from `account`. If `account` had been granted `role`, emits a {RoleRevoked} event. Requirements: - the caller must have ``role``'s admin role."
      },
      "safeTransferFrom(address,address,uint256)": {
        "details": "See {IERC721-safeTransferFrom}."
      },
      "safeTransferFrom(address,address,uint256,bytes)": {
        "details": "See {IERC721-safeTransferFrom}."
      },
      "setApprovalForAll(address,bool)": {
        "details": "See {IERC721-setApprovalForAll}."
      },
      "supportsInterface(bytes4)": {
        "details": "See {IERC165-supportsInterface}."
      },
      "symbol()": {
        "details": "See {IERC721Metadata-symbol}."
      },
      "tokenByIndex(uint256)": {
        "details": "See {IERC721Enumerable-tokenByIndex}."
      },
      "tokenOfOwnerByIndex(address,uint256)": {
        "details": "See {IERC721Enumerable-tokenOfOwnerByIndex}."
      },
      "tokenURI(uint256)": {
        "details": "See {IERC721Metadata-tokenURI}."
      },
      "totalSupply()": {
        "details": "See {IERC721Enumerable-totalSupply}."
      },
      "transferFrom(address,address,uint256)": {
        "details": "See {IERC721-transferFrom}."
      },
      "unpause()": {
        "details": "Unpauses all token transfers. See {ERC721Pausable} and {Pausable-_unpause}. Requirements: - the caller must have the `PAUSER_ROLE`."
      }
    },
    "version": 1
  },
  "userdoc": {
    "kind": "user",
    "methods": {},
    "version": 1
  }
}