{
  "contractName": "Market",
  "abi": [
    {
      "anonymous": false,
      "inputs": [
        {
          "indexed": false,
          "internalType": "uint256",
          "name": "listingId",
          "type": "uint256"
        },
        {
          "indexed": false,
          "internalType": "address",
          "name": "seller",
          "type": "address"
        }
      ],
      "name": "Cancel",
      "type": "event"
    },
    {
      "anonymous": false,
      "inputs": [
        {
          "indexed": false,
          "internalType": "uint256",
          "name": "listingId",
          "type": "uint256"
        },
        {
          "indexed": false,
          "internalType": "address",
          "name": "seller",
          "type": "address"
        },
        {
          "indexed": false,
          "internalType": "address",
          "name": "token",
          "type": "address"
        },
        {
          "indexed": false,
          "internalType": "uint256",
          "name": "tokenId",
          "type": "uint256"
        },
        {
          "indexed": false,
          "internalType": "uint256",
          "name": "price",
          "type": "uint256"
        }
      ],
      "name": "Listed",
      "type": "event"
    },
    {
      "anonymous": false,
      "inputs": [
        {
          "indexed": false,
          "internalType": "uint256",
          "name": "listingId",
          "type": "uint256"
        },
        {
          "indexed": false,
          "internalType": "address",
          "name": "buyer",
          "type": "address"
        },
        {
          "indexed": false,
          "internalType": "address",
          "name": "token",
          "type": "address"
        },
        {
          "indexed": false,
          "internalType": "uint256",
          "name": "tokenId",
          "type": "uint256"
        },
        {
          "indexed": false,
          "internalType": "uint256",
          "name": "price",
          "type": "uint256"
        }
      ],
      "name": "Sale",
      "type": "event"
    },
    {
      "inputs": [
        {
          "internalType": "address",
          "name": "token",
          "type": "address"
        },
        {
          "internalType": "uint256",
          "name": "tokenId",
          "type": "uint256"
        },
        {
          "internalType": "uint256",
          "name": "price",
          "type": "uint256"
        }
      ],
      "name": "listToken",
      "outputs": [],
      "stateMutability": "nonpayable",
      "type": "function"
    },
    {
      "inputs": [
        {
          "internalType": "uint256",
          "name": "listingId",
          "type": "uint256"
        }
      ],
      "name": "getListing",
      "outputs": [
        {
          "components": [
            {
              "internalType": "enum Market.ListingStatus",
              "name": "status",
              "type": "uint8"
            },
            {
              "internalType": "address",
              "name": "seller",
              "type": "address"
            },
            {
              "internalType": "address",
              "name": "token",
              "type": "address"
            },
            {
              "internalType": "uint256",
              "name": "tokenId",
              "type": "uint256"
            },
            {
              "internalType": "uint256",
              "name": "price",
              "type": "uint256"
            }
          ],
          "internalType": "struct Market.Listing",
          "name": "",
          "type": "tuple"
        }
      ],
      "stateMutability": "view",
      "type": "function"
    },
    {
      "inputs": [],
      "name": "getAmoutListing",
      "outputs": [
        {
          "internalType": "uint256",
          "name": "",
          "type": "uint256"
        }
      ],
      "stateMutability": "view",
      "type": "function"
    },
    {
      "inputs": [
        {
          "internalType": "uint256",
          "name": "listingId",
          "type": "uint256"
        }
      ],
      "name": "buyToken",
      "outputs": [],
      "stateMutability": "payable",
      "type": "function"
    },
    {
      "inputs": [
        {
          "internalType": "uint256",
          "name": "listingId",
          "type": "uint256"
        }
      ],
      "name": "cancel",
      "outputs": [],
      "stateMutability": "nonpayable",
      "type": "function"
    }
  ],
  "bytecode": "0x60806040526000805534801561001457600080fd5b50610f9d806100246000396000f3fe60806040526004361061004a5760003560e01c8063107a274a1461004f5780632d296bf11461008c57806340e58ee5146100a857806371187cdb146100d15780637e07590d146100fc575b600080fd5b34801561005b57600080fd5b5061007660048036038101906100719190610a4c565b610125565b6040516100839190610ba8565b60405180910390f35b6100a660048036038101906100a19190610a4c565b61024d565b005b3480156100b457600080fd5b506100cf60048036038101906100ca9190610a4c565b610558565b005b3480156100dd57600080fd5b506100e661077a565b6040516100f39190610bd2565b60405180910390f35b34801561010857600080fd5b50610123600480360381019061011e9190610c19565b610783565b005b61012d6109a4565b600160008381526020019081526020016000206040518060a00160405290816000820160009054906101000a900460ff1660028111156101705761016f610a79565b5b600281111561018257610181610a79565b5b81526020016000820160019054906101000a900473ffffffffffffffffffffffffffffffffffffffff1673ffffffffffffffffffffffffffffffffffffffff1673ffffffffffffffffffffffffffffffffffffffff1681526020016001820160009054906101000a900473ffffffffffffffffffffffffffffffffffffffff1673ffffffffffffffffffffffffffffffffffffffff1673ffffffffffffffffffffffffffffffffffffffff168152602001600282015481526020016003820154815250509050919050565b60006001600083815260200190815260200160002090508060000160019054906101000a900473ffffffffffffffffffffffffffffffffffffffff1673ffffffffffffffffffffffffffffffffffffffff163373ffffffffffffffffffffffffffffffffffffffff1614156102f7576040517f08c379a00000000000000000000000000000000000000000000000000000000081526004016102ee90610cc9565b60405180910390fd5b6000600281111561030b5761030a610a79565b5b8160000160009054906101000a900460ff16600281111561032f5761032e610a79565b5b1461036f576040517f08c379a000000000000000000000000000000000000000000000000000000000815260040161036690610d35565b60405180910390fd5b80600301543410156103b6576040517f08c379a00000000000000000000000000000000000000000000000000000000081526004016103ad90610da1565b60405180910390fd5b60018160000160006101000a81548160ff021916908360028111156103de576103dd610a79565b5b02179055508060010160009054906101000a900473ffffffffffffffffffffffffffffffffffffffff1673ffffffffffffffffffffffffffffffffffffffff166323b872dd303384600201546040518463ffffffff1660e01b815260040161044893929190610dd0565b600060405180830381600087803b15801561046257600080fd5b505af1158015610476573d6000803e3d6000fd5b505050508060000160019054906101000a900473ffffffffffffffffffffffffffffffffffffffff1673ffffffffffffffffffffffffffffffffffffffff166108fc82600301549081150290604051600060405180830381858888f193505050501580156104e8573d6000803e3d6000fd5b507ff3debaf22196a6ddf52a60fa71058cd7edf5e25bb98f4e96c994a5d4a9b0dd3e82338360010160009054906101000a900473ffffffffffffffffffffffffffffffffffffffff168460020154856003015460405161054c959493929190610e07565b60405180910390a15050565b60006001600083815260200190815260200160002090508060000160019054906101000a900473ffffffffffffffffffffffffffffffffffffffff1673ffffffffffffffffffffffffffffffffffffffff163373ffffffffffffffffffffffffffffffffffffffff1614610601576040517f08c379a00000000000000000000000000000000000000000000000000000000081526004016105f890610ea6565b60405180910390fd5b6000600281111561061557610614610a79565b5b8160000160009054906101000a900460ff16600281111561063957610638610a79565b5b14610679576040517f08c379a000000000000000000000000000000000000000000000000000000000815260040161067090610d35565b60405180910390fd5b60028160000160006101000a81548160ff021916908360028111156106a1576106a0610a79565b5b02179055508060010160009054906101000a900473ffffffffffffffffffffffffffffffffffffffff1673ffffffffffffffffffffffffffffffffffffffff166323b872dd303384600201546040518463ffffffff1660e01b815260040161070b93929190610dd0565b600060405180830381600087803b15801561072557600080fd5b505af1158015610739573d6000803e3d6000fd5b505050507f8dd3c361eb2366ff27c2db0eb07b9261f1d052570742ab8c9a0c326f37aa576d823360405161076e929190610ec6565b60405180910390a15050565b60008054905090565b8273ffffffffffffffffffffffffffffffffffffffff166323b872dd3330856040518463ffffffff1660e01b81526004016107c093929190610dd0565b600060405180830381600087803b1580156107da57600080fd5b505af11580156107ee573d6000803e3d6000fd5b5050505060006040518060a001604052806000600281111561081357610812610a79565b5b81526020013373ffffffffffffffffffffffffffffffffffffffff1681526020018573ffffffffffffffffffffffffffffffffffffffff16815260200184815260200183815250905060008081548092919061086e90610f1e565b919050555080600160008054815260200190815260200160002060008201518160000160006101000a81548160ff021916908360028111156108b3576108b2610a79565b5b021790555060208201518160000160016101000a81548173ffffffffffffffffffffffffffffffffffffffff021916908373ffffffffffffffffffffffffffffffffffffffff16021790555060408201518160010160006101000a81548173ffffffffffffffffffffffffffffffffffffffff021916908373ffffffffffffffffffffffffffffffffffffffff16021790555060608201518160020155608082015181600301559050507f723f73331eaee88eec7fc68ef60ab6ed15e4b90d0472b55eb92fa43910bab6dd60005433868686604051610996959493929190610e07565b60405180910390a150505050565b6040518060a00160405280600060028111156109c3576109c2610a79565b5b8152602001600073ffffffffffffffffffffffffffffffffffffffff168152602001600073ffffffffffffffffffffffffffffffffffffffff16815260200160008152602001600081525090565b600080fd5b6000819050919050565b610a2981610a16565b8114610a3457600080fd5b50565b600081359050610a4681610a20565b92915050565b600060208284031215610a6257610a61610a11565b5b6000610a7084828501610a37565b91505092915050565b7f4e487b7100000000000000000000000000000000000000000000000000000000600052602160045260246000fd5b60038110610ab957610ab8610a79565b5b50565b6000819050610aca82610aa8565b919050565b6000610ada82610abc565b9050919050565b610aea81610acf565b82525050565b600073ffffffffffffffffffffffffffffffffffffffff82169050919050565b6000610b1b82610af0565b9050919050565b610b2b81610b10565b82525050565b610b3a81610a16565b82525050565b60a082016000820151610b566000850182610ae1565b506020820151610b696020850182610b22565b506040820151610b7c6040850182610b22565b506060820151610b8f6060850182610b31565b506080820151610ba26080850182610b31565b50505050565b600060a082019050610bbd6000830184610b40565b92915050565b610bcc81610a16565b82525050565b6000602082019050610be76000830184610bc3565b92915050565b610bf681610b10565b8114610c0157600080fd5b50565b600081359050610c1381610bed565b92915050565b600080600060608486031215610c3257610c31610a11565b5b6000610c4086828701610c04565b9350506020610c5186828701610a37565b9250506040610c6286828701610a37565b9150509250925092565b600082825260208201905092915050565b7f53656c6c65722063616e6e6f7420626520627579657200000000000000000000600082015250565b6000610cb3601683610c6c565b9150610cbe82610c7d565b602082019050919050565b60006020820190508181036000830152610ce281610ca6565b9050919050565b7f4c697374696e67206973206e6f74206163746976650000000000000000000000600082015250565b6000610d1f601583610c6c565b9150610d2a82610ce9565b602082019050919050565b60006020820190508181036000830152610d4e81610d12565b9050919050565b7f496e73756666696369656e74207061796d656e00000000000000000000000000600082015250565b6000610d8b601383610c6c565b9150610d9682610d55565b602082019050919050565b60006020820190508181036000830152610dba81610d7e565b9050919050565b610dca81610b10565b82525050565b6000606082019050610de56000830186610dc1565b610df26020830185610dc1565b610dff6040830184610bc3565b949350505050565b600060a082019050610e1c6000830188610bc3565b610e296020830187610dc1565b610e366040830186610dc1565b610e436060830185610bc3565b610e506080830184610bc3565b9695505050505050565b7f6f6e6c792073656c6c65722063616e2063616e63656c206c697374696e670000600082015250565b6000610e90601e83610c6c565b9150610e9b82610e5a565b602082019050919050565b60006020820190508181036000830152610ebf81610e83565b9050919050565b6000604082019050610edb6000830185610bc3565b610ee86020830184610dc1565b9392505050565b7f4e487b7100000000000000000000000000000000000000000000000000000000600052601160045260246000fd5b6000610f2982610a16565b91507fffffffffffffffffffffffffffffffffffffffffffffffffffffffffffffffff821415610f5c57610f5b610eef565b5b60018201905091905056fea2646970667358221220e54f4f87e39f3ccf506ef323ea0a2aa2252a8739932caca663f25c1859ac8e4f64736f6c634300080a0033",
  "immutableReferences": {},
  "source": "// SPDX-License-Identifier: MIT\npragma solidity ^0.8.10;\n\nimport \"./@openzeppelin/contracts/token/ERC721/IERC721.sol\";\n\ncontract Market{\n    enum ListingStatus {\n        Active,\n        Sold,\n        Cancelled\n    }\n    struct Listing{\n        ListingStatus status;\n        address seller;\n        address token;\n        uint tokenId;\n        uint price;\n    }\n\n    event Listed(uint listingId, address seller, address token, uint tokenId, uint price);\n    event Sale(uint listingId, address buyer, address token, uint tokenId, uint price);\n    event Cancel(uint listingId, address seller);\n\n    uint private _listingId = 0;\n    mapping(uint => Listing) private _listings;\n\n    function listToken(address token, uint tokenId, uint price) external {\n        IERC721(token).transferFrom(msg.sender, address(this), tokenId);\n        Listing memory listing = Listing(\n            ListingStatus.Active,\n            msg.sender,\n            token, \n            tokenId,\n            price\n        );\n\n        _listingId++;\n\n        _listings[_listingId] = listing;\n\n        emit Listed(_listingId, msg.sender, token, tokenId, price);\n    }\n\n    function getListing(uint listingId) external view returns(Listing memory){\n        return _listings[listingId];\n    }\n\n    function getAmoutListing() external view returns(uint ){\n        return _listingId;\n    }\n\n    function buyToken(uint listingId) external payable{\n        Listing storage listing = _listings[listingId];\n\n        require(msg.sender != listing.seller, \"Seller cannot be buyer\");\n        require(listing.status == ListingStatus.Active, \"Listing is not active\");\n\n        require(msg.value >= listing.price, \"Insufficient paymen\");\n\n        listing.status = ListingStatus.Sold;\n\n        IERC721(listing.token).transferFrom(address(this), msg.sender, listing.tokenId);\n        \n        payable(listing.seller).transfer(listing.price);\n\n        emit Sale(listingId, msg.sender, listing.token, listing.tokenId, listing.price);\n\n    }\n\n    function cancel(uint listingId) public {\n        Listing storage listing = _listings[listingId];\n\n        require(msg.sender == listing.seller, \"only seller can cancel listing\");\n        require(listing.status == ListingStatus.Active, \"Listing is not active\");\n\n        listing.status = ListingStatus.Cancelled;\n\n        IERC721(listing.token).transferFrom(address(this), msg.sender, listing.tokenId);\n        \n        emit Cancel(listingId, msg.sender);\n    }\n}",
  "sourcePath": "/Users/bienpx224/Desktop/Solidity/MetaScence/contracts/Market.sol",
  "compiler": {
    "name": "solc",
    "version": "0.8.10+commit.fc410830.Emscripten.clang"
  },
  "schemaVersion": "3.4.3",
  "updatedAt": "2021-12-17T06:48:58.677Z",
  "devdoc": {
    "kind": "dev",
    "methods": {},
    "version": 1
  },
  "userdoc": {
    "kind": "user",
    "methods": {},
    "version": 1
  }
}