{
  "contractName": "Market",
  "abi": [
    {
      "anonymous": false,
      "inputs": [
        {
          "indexed": false,
          "internalType": "uint256",
          "name": "listingId",
          "type": "uint256"
        },
        {
          "indexed": false,
          "internalType": "address",
          "name": "seller",
          "type": "address"
        }
      ],
      "name": "Cancel",
      "type": "event"
    },
    {
      "anonymous": false,
      "inputs": [
        {
          "indexed": false,
          "internalType": "uint256",
          "name": "listingId",
          "type": "uint256"
        },
        {
          "indexed": false,
          "internalType": "address",
          "name": "seller",
          "type": "address"
        },
        {
          "indexed": false,
          "internalType": "address",
          "name": "token",
          "type": "address"
        },
        {
          "indexed": false,
          "internalType": "uint256",
          "name": "tokenId",
          "type": "uint256"
        },
        {
          "indexed": false,
          "internalType": "uint256",
          "name": "price",
          "type": "uint256"
        }
      ],
      "name": "Listed",
      "type": "event"
    },
    {
      "anonymous": false,
      "inputs": [
        {
          "indexed": false,
          "internalType": "uint256",
          "name": "listingId",
          "type": "uint256"
        },
        {
          "indexed": false,
          "internalType": "address",
          "name": "buyer",
          "type": "address"
        },
        {
          "indexed": false,
          "internalType": "address",
          "name": "token",
          "type": "address"
        },
        {
          "indexed": false,
          "internalType": "uint256",
          "name": "tokenId",
          "type": "uint256"
        },
        {
          "indexed": false,
          "internalType": "uint256",
          "name": "price",
          "type": "uint256"
        }
      ],
      "name": "Sale",
      "type": "event"
    },
    {
      "inputs": [
        {
          "internalType": "address",
          "name": "token",
          "type": "address"
        },
        {
          "internalType": "uint256",
          "name": "tokenId",
          "type": "uint256"
        },
        {
          "internalType": "uint256",
          "name": "price",
          "type": "uint256"
        }
      ],
      "name": "listToken",
      "outputs": [],
      "stateMutability": "nonpayable",
      "type": "function"
    },
    {
      "inputs": [
        {
          "internalType": "uint256",
          "name": "listingId",
          "type": "uint256"
        }
      ],
      "name": "getListing",
      "outputs": [
        {
          "components": [
            {
              "internalType": "enum Market.ListingStatus",
              "name": "status",
              "type": "uint8"
            },
            {
              "internalType": "address",
              "name": "seller",
              "type": "address"
            },
            {
              "internalType": "address",
              "name": "token",
              "type": "address"
            },
            {
              "internalType": "uint256",
              "name": "tokenId",
              "type": "uint256"
            },
            {
              "internalType": "uint256",
              "name": "price",
              "type": "uint256"
            }
          ],
          "internalType": "struct Market.Listing",
          "name": "",
          "type": "tuple"
        }
      ],
      "stateMutability": "view",
      "type": "function",
      "constant": true
    },
    {
      "inputs": [
        {
          "internalType": "uint256",
          "name": "listingId",
          "type": "uint256"
        }
      ],
      "name": "buyToken",
      "outputs": [],
      "stateMutability": "payable",
      "type": "function",
      "payable": true
    },
    {
      "inputs": [
        {
          "internalType": "uint256",
          "name": "listingId",
          "type": "uint256"
        }
      ],
      "name": "cancel",
      "outputs": [],
      "stateMutability": "nonpayable",
      "type": "function"
    }
  ],
  "bytecode": "0x60806040526000805534801561001457600080fd5b50610f43806100246000396000f3fe60806040526004361061003f5760003560e01c8063107a274a146100445780632d296bf11461008157806340e58ee51461009d5780637e07590d146100c6575b600080fd5b34801561005057600080fd5b5061006b60048036038101906100669190610a0d565b6100ef565b6040516100789190610b69565b60405180910390f35b61009b60048036038101906100969190610a0d565b610217565b005b3480156100a957600080fd5b506100c460048036038101906100bf9190610a0d565b610522565b005b3480156100d257600080fd5b506100ed60048036038101906100e89190610bb0565b610744565b005b6100f7610965565b600160008381526020019081526020016000206040518060a00160405290816000820160009054906101000a900460ff16600281111561013a57610139610a3a565b5b600281111561014c5761014b610a3a565b5b81526020016000820160019054906101000a900473ffffffffffffffffffffffffffffffffffffffff1673ffffffffffffffffffffffffffffffffffffffff1673ffffffffffffffffffffffffffffffffffffffff1681526020016001820160009054906101000a900473ffffffffffffffffffffffffffffffffffffffff1673ffffffffffffffffffffffffffffffffffffffff1673ffffffffffffffffffffffffffffffffffffffff168152602001600282015481526020016003820154815250509050919050565b60006001600083815260200190815260200160002090508060000160019054906101000a900473ffffffffffffffffffffffffffffffffffffffff1673ffffffffffffffffffffffffffffffffffffffff163373ffffffffffffffffffffffffffffffffffffffff1614156102c1576040517f08c379a00000000000000000000000000000000000000000000000000000000081526004016102b890610c60565b60405180910390fd5b600060028111156102d5576102d4610a3a565b5b8160000160009054906101000a900460ff1660028111156102f9576102f8610a3a565b5b14610339576040517f08c379a000000000000000000000000000000000000000000000000000000000815260040161033090610ccc565b60405180910390fd5b8060030154341015610380576040517f08c379a000000000000000000000000000000000000000000000000000000000815260040161037790610d38565b60405180910390fd5b60018160000160006101000a81548160ff021916908360028111156103a8576103a7610a3a565b5b02179055508060010160009054906101000a900473ffffffffffffffffffffffffffffffffffffffff1673ffffffffffffffffffffffffffffffffffffffff166323b872dd303384600201546040518463ffffffff1660e01b815260040161041293929190610d76565b600060405180830381600087803b15801561042c57600080fd5b505af1158015610440573d6000803e3d6000fd5b505050508060000160019054906101000a900473ffffffffffffffffffffffffffffffffffffffff1673ffffffffffffffffffffffffffffffffffffffff166108fc82600301549081150290604051600060405180830381858888f193505050501580156104b2573d6000803e3d6000fd5b507ff3debaf22196a6ddf52a60fa71058cd7edf5e25bb98f4e96c994a5d4a9b0dd3e82338360010160009054906101000a900473ffffffffffffffffffffffffffffffffffffffff1684600201548560030154604051610516959493929190610dad565b60405180910390a15050565b60006001600083815260200190815260200160002090508060000160019054906101000a900473ffffffffffffffffffffffffffffffffffffffff1673ffffffffffffffffffffffffffffffffffffffff163373ffffffffffffffffffffffffffffffffffffffff16146105cb576040517f08c379a00000000000000000000000000000000000000000000000000000000081526004016105c290610e4c565b60405180910390fd5b600060028111156105df576105de610a3a565b5b8160000160009054906101000a900460ff16600281111561060357610602610a3a565b5b14610643576040517f08c379a000000000000000000000000000000000000000000000000000000000815260040161063a90610ccc565b60405180910390fd5b60028160000160006101000a81548160ff0219169083600281111561066b5761066a610a3a565b5b02179055508060010160009054906101000a900473ffffffffffffffffffffffffffffffffffffffff1673ffffffffffffffffffffffffffffffffffffffff166323b872dd303384600201546040518463ffffffff1660e01b81526004016106d593929190610d76565b600060405180830381600087803b1580156106ef57600080fd5b505af1158015610703573d6000803e3d6000fd5b505050507f8dd3c361eb2366ff27c2db0eb07b9261f1d052570742ab8c9a0c326f37aa576d8233604051610738929190610e6c565b60405180910390a15050565b8273ffffffffffffffffffffffffffffffffffffffff166323b872dd3330856040518463ffffffff1660e01b815260040161078193929190610d76565b600060405180830381600087803b15801561079b57600080fd5b505af11580156107af573d6000803e3d6000fd5b5050505060006040518060a00160405280600060028111156107d4576107d3610a3a565b5b81526020013373ffffffffffffffffffffffffffffffffffffffff1681526020018573ffffffffffffffffffffffffffffffffffffffff16815260200184815260200183815250905060008081548092919061082f90610ec4565b919050555080600160008054815260200190815260200160002060008201518160000160006101000a81548160ff0219169083600281111561087457610873610a3a565b5b021790555060208201518160000160016101000a81548173ffffffffffffffffffffffffffffffffffffffff021916908373ffffffffffffffffffffffffffffffffffffffff16021790555060408201518160010160006101000a81548173ffffffffffffffffffffffffffffffffffffffff021916908373ffffffffffffffffffffffffffffffffffffffff16021790555060608201518160020155608082015181600301559050507f723f73331eaee88eec7fc68ef60ab6ed15e4b90d0472b55eb92fa43910bab6dd60005433868686604051610957959493929190610dad565b60405180910390a150505050565b6040518060a001604052806000600281111561098457610983610a3a565b5b8152602001600073ffffffffffffffffffffffffffffffffffffffff168152602001600073ffffffffffffffffffffffffffffffffffffffff16815260200160008152602001600081525090565b600080fd5b6000819050919050565b6109ea816109d7565b81146109f557600080fd5b50565b600081359050610a07816109e1565b92915050565b600060208284031215610a2357610a226109d2565b5b6000610a31848285016109f8565b91505092915050565b7f4e487b7100000000000000000000000000000000000000000000000000000000600052602160045260246000fd5b60038110610a7a57610a79610a3a565b5b50565b6000819050610a8b82610a69565b919050565b6000610a9b82610a7d565b9050919050565b610aab81610a90565b82525050565b600073ffffffffffffffffffffffffffffffffffffffff82169050919050565b6000610adc82610ab1565b9050919050565b610aec81610ad1565b82525050565b610afb816109d7565b82525050565b60a082016000820151610b176000850182610aa2565b506020820151610b2a6020850182610ae3565b506040820151610b3d6040850182610ae3565b506060820151610b506060850182610af2565b506080820151610b636080850182610af2565b50505050565b600060a082019050610b7e6000830184610b01565b92915050565b610b8d81610ad1565b8114610b9857600080fd5b50565b600081359050610baa81610b84565b92915050565b600080600060608486031215610bc957610bc86109d2565b5b6000610bd786828701610b9b565b9350506020610be8868287016109f8565b9250506040610bf9868287016109f8565b9150509250925092565b600082825260208201905092915050565b7f53656c6c65722063616e6e6f7420626520627579657200000000000000000000600082015250565b6000610c4a601683610c03565b9150610c5582610c14565b602082019050919050565b60006020820190508181036000830152610c7981610c3d565b9050919050565b7f4c697374696e67206973206e6f74206163746976650000000000000000000000600082015250565b6000610cb6601583610c03565b9150610cc182610c80565b602082019050919050565b60006020820190508181036000830152610ce581610ca9565b9050919050565b7f496e73756666696369656e74207061796d656e00000000000000000000000000600082015250565b6000610d22601383610c03565b9150610d2d82610cec565b602082019050919050565b60006020820190508181036000830152610d5181610d15565b9050919050565b610d6181610ad1565b82525050565b610d70816109d7565b82525050565b6000606082019050610d8b6000830186610d58565b610d986020830185610d58565b610da56040830184610d67565b949350505050565b600060a082019050610dc26000830188610d67565b610dcf6020830187610d58565b610ddc6040830186610d58565b610de96060830185610d67565b610df66080830184610d67565b9695505050505050565b7f6f6e6c792073656c6c65722063616e2063616e63656c206c697374696e670000600082015250565b6000610e36601e83610c03565b9150610e4182610e00565b602082019050919050565b60006020820190508181036000830152610e6581610e29565b9050919050565b6000604082019050610e816000830185610d67565b610e8e6020830184610d58565b9392505050565b7f4e487b7100000000000000000000000000000000000000000000000000000000600052601160045260246000fd5b6000610ecf826109d7565b91507fffffffffffffffffffffffffffffffffffffffffffffffffffffffffffffffff821415610f0257610f01610e95565b5b60018201905091905056fea2646970667358221220001aacdf8ec181ed9276147fb4de92fa6da42359d8ad599df0fa0284d84b0a3264736f6c634300080a0033",
  "immutableReferences": {},
  "source": "// SPDX-License-Identifier: MIT\r\npragma solidity ^0.8.10;\r\n\r\nimport \"./@openzeppelin/contracts/token/ERC721/IERC721.sol\";\r\n\r\ncontract Market{\r\n    enum ListingStatus {\r\n        Active,\r\n        Sold,\r\n        Cancelled\r\n    }\r\n    struct Listing{\r\n        ListingStatus status;\r\n        address seller;\r\n        address token;\r\n        uint tokenId;\r\n        uint price;\r\n    }\r\n\r\n    event Listed(uint listingId, address seller, address token, uint tokenId, uint price);\r\n    event Sale(uint listingId, address buyer, address token, uint tokenId, uint price);\r\n    event Cancel(uint listingId, address seller);\r\n\r\n    uint private _listingId = 0;\r\n    mapping(uint => Listing) private _listings;\r\n\r\n    function listToken(address token, uint tokenId, uint price) external {\r\n        IERC721(token).transferFrom(msg.sender, address(this), tokenId);\r\n        Listing memory listing = Listing(\r\n            ListingStatus.Active,\r\n            msg.sender,\r\n            token, \r\n            tokenId,\r\n            price\r\n        );\r\n\r\n        _listingId++;\r\n\r\n        _listings[_listingId] = listing;\r\n\r\n        emit Listed(_listingId, msg.sender, token, tokenId, price);\r\n    }\r\n\r\n    function getListing(uint listingId) external view returns(Listing memory){\r\n        return _listings[listingId];\r\n    }\r\n\r\n    function buyToken(uint listingId) external payable{\r\n        Listing storage listing = _listings[listingId];\r\n\r\n        require(msg.sender != listing.seller, \"Seller cannot be buyer\");\r\n        require(listing.status == ListingStatus.Active, \"Listing is not active\");\r\n\r\n        require(msg.value >= listing.price, \"Insufficient paymen\");\r\n\r\n        listing.status = ListingStatus.Sold;\r\n\r\n        IERC721(listing.token).transferFrom(address(this), msg.sender, listing.tokenId);\r\n        \r\n        payable(listing.seller).transfer(listing.price);\r\n\r\n        emit Sale(listingId, msg.sender, listing.token, listing.tokenId, listing.price);\r\n\r\n    }\r\n\r\n    function cancel(uint listingId) public {\r\n        Listing storage listing = _listings[listingId];\r\n\r\n        require(msg.sender == listing.seller, \"only seller can cancel listing\");\r\n        require(listing.status == ListingStatus.Active, \"Listing is not active\");\r\n\r\n        listing.status = ListingStatus.Cancelled;\r\n\r\n        IERC721(listing.token).transferFrom(address(this), msg.sender, listing.tokenId);\r\n        \r\n        emit Cancel(listingId, msg.sender);\r\n    }\r\n}",
  "sourcePath": "D:\\Blockchain\\MetaScence\\contracts\\Market.sol",
  "compiler": {
    "name": "solc",
    "version": "0.8.10+commit.fc410830.Emscripten.clang"
  },
  "schemaVersion": "3.4.3",
  "updatedAt": "2021-12-16T04:20:08.132Z",
  "networkType": "ethereum",
  "devdoc": {
    "kind": "dev",
    "methods": {},
    "version": 1
  },
  "userdoc": {
    "kind": "user",
    "methods": {},
    "version": 1
  }
}