{
  "contractName": "MinimalForwarder",
  "abi": [
    {
      "inputs": [],
      "stateMutability": "nonpayable",
      "type": "constructor"
    },
    {
      "inputs": [
        {
          "internalType": "address",
          "name": "from",
          "type": "address"
        }
      ],
      "name": "getNonce",
      "outputs": [
        {
          "internalType": "uint256",
          "name": "",
          "type": "uint256"
        }
      ],
      "stateMutability": "view",
      "type": "function"
    },
    {
      "inputs": [
        {
          "components": [
            {
              "internalType": "address",
              "name": "from",
              "type": "address"
            },
            {
              "internalType": "address",
              "name": "to",
              "type": "address"
            },
            {
              "internalType": "uint256",
              "name": "value",
              "type": "uint256"
            },
            {
              "internalType": "uint256",
              "name": "gas",
              "type": "uint256"
            },
            {
              "internalType": "uint256",
              "name": "nonce",
              "type": "uint256"
            },
            {
              "internalType": "bytes",
              "name": "data",
              "type": "bytes"
            }
          ],
          "internalType": "struct MinimalForwarder.ForwardRequest",
          "name": "req",
          "type": "tuple"
        },
        {
          "internalType": "bytes",
          "name": "signature",
          "type": "bytes"
        }
      ],
      "name": "verify",
      "outputs": [
        {
          "internalType": "bool",
          "name": "",
          "type": "bool"
        }
      ],
      "stateMutability": "view",
      "type": "function"
    },
    {
      "inputs": [
        {
          "components": [
            {
              "internalType": "address",
              "name": "from",
              "type": "address"
            },
            {
              "internalType": "address",
              "name": "to",
              "type": "address"
            },
            {
              "internalType": "uint256",
              "name": "value",
              "type": "uint256"
            },
            {
              "internalType": "uint256",
              "name": "gas",
              "type": "uint256"
            },
            {
              "internalType": "uint256",
              "name": "nonce",
              "type": "uint256"
            },
            {
              "internalType": "bytes",
              "name": "data",
              "type": "bytes"
            }
          ],
          "internalType": "struct MinimalForwarder.ForwardRequest",
          "name": "req",
          "type": "tuple"
        },
        {
          "internalType": "bytes",
          "name": "signature",
          "type": "bytes"
        }
      ],
      "name": "execute",
      "outputs": [
        {
          "internalType": "bool",
          "name": "",
          "type": "bool"
        },
        {
          "internalType": "bytes",
          "name": "",
          "type": "bytes"
        }
      ],
      "stateMutability": "payable",
      "type": "function"
    }
  ],
  "bytecode": "0x6101406040523480156200001257600080fd5b506040518060400160405280601081526020017f4d696e696d616c466f72776172646572000000000000000000000000000000008152506040518060400160405280600581526020017f302e302e3100000000000000000000000000000000000000000000000000000081525060008280519060200120905060008280519060200120905060007f8b73c3c69bb8fe3d512ecc4cf759cc79239f7b179b0ffacaa9a75d522b39400f90508260e081815250508161010081815250504660a08181525050620000e88184846200013760201b60201c565b608081815250503073ffffffffffffffffffffffffffffffffffffffff1660c08173ffffffffffffffffffffffffffffffffffffffff168152505080610120818152505050505050506200024b565b6000838383463060405160200162000154959493929190620001ee565b6040516020818303038152906040528051906020012090509392505050565b6000819050919050565b620001888162000173565b82525050565b6000819050919050565b620001a3816200018e565b82525050565b600073ffffffffffffffffffffffffffffffffffffffff82169050919050565b6000620001d682620001a9565b9050919050565b620001e881620001c9565b82525050565b600060a0820190506200020560008301886200017d565b6200021460208301876200017d565b6200022360408301866200017d565b62000232606083018562000198565b620002416080830184620001dd565b9695505050505050565b60805160a05160c05160e05161010051610120516114716200029b6000396000610582015260006105c4015260006105a3015260006104d80152600061052e0152600061055701526114716000f3fe6080604052600436106100345760003560e01c80632d0335ab1461003957806347153f8214610076578063bf5d3bdb146100a7575b600080fd5b34801561004557600080fd5b50610060600480360381019061005b9190610a76565b6100e4565b60405161006d9190610abc565b60405180910390f35b610090600480360381019061008b9190610b60565b61012c565b60405161009e929190610c90565b60405180910390f35b3480156100b357600080fd5b506100ce60048036038101906100c99190610b60565b6102de565b6040516100db9190610cc0565b60405180910390f35b60008060008373ffffffffffffffffffffffffffffffffffffffff1673ffffffffffffffffffffffffffffffffffffffff168152602001908152602001600020549050919050565b6000606061013b8585856102de565b61017a576040517f08c379a000000000000000000000000000000000000000000000000000000000815260040161017190610d5e565b60405180910390fd5b6001856080013561018b9190610dad565b6000808760000160208101906101a19190610a76565b73ffffffffffffffffffffffffffffffffffffffff1673ffffffffffffffffffffffffffffffffffffffff168152602001908152602001600020819055506000808660200160208101906101f59190610a76565b73ffffffffffffffffffffffffffffffffffffffff1687606001358860400135898060a001906102259190610e12565b8b60000160208101906102389190610a76565b60405160200161024a93929190610efc565b6040516020818303038152906040526040516102669190610f57565b600060405180830381858888f193505050503d80600081146102a4576040519150601f19603f3d011682016040523d82523d6000602084013e6102a9565b606091505b5091509150603f87606001356102bf9190610f9d565b5a116102ce576102cd610fce565b5b8181935093505050935093915050565b6000806103e784848080601f016020809104026020016040519081016040528093929190818152602001838380828437600081840152601f19601f820116905080830192505050505050506103d97fdd8f4b70b0f4393e889bd39128a30628a78b61816a9eb8199759e7a349657e488860000160208101906103609190610a76565b8960200160208101906103739190610a76565b8a604001358b606001358c608001358d8060a001906103929190610e12565b6040516103a0929190610ffd565b60405180910390206040516020016103be979695949392919061103e565b60405160208183030381529060405280519060200120610493565b6104ad90919063ffffffff16565b905084608001356000808760000160208101906104049190610a76565b73ffffffffffffffffffffffffffffffffffffffff1673ffffffffffffffffffffffffffffffffffffffff16815260200190815260200160002054148015610489575084600001602081019061045a9190610a76565b73ffffffffffffffffffffffffffffffffffffffff168173ffffffffffffffffffffffffffffffffffffffff16145b9150509392505050565b60006104a66104a06104d4565b836105ee565b9050919050565b60008060006104bc8585610621565b915091506104c9816106a4565b819250505092915050565b60007f000000000000000000000000000000000000000000000000000000000000000073ffffffffffffffffffffffffffffffffffffffff163073ffffffffffffffffffffffffffffffffffffffff1614801561055057507f000000000000000000000000000000000000000000000000000000000000000046145b1561057d577f000000000000000000000000000000000000000000000000000000000000000090506105eb565b6105e87f00000000000000000000000000000000000000000000000000000000000000007f00000000000000000000000000000000000000000000000000000000000000007f0000000000000000000000000000000000000000000000000000000000000000610879565b90505b90565b60008282604051602001610603929190611125565b60405160208183030381529060405280519060200120905092915050565b6000806041835114156106635760008060006020860151925060408601519150606086015160001a9050610657878285856108b3565b9450945050505061069d565b6040835114156106945760008060208501519150604085015190506106898683836109c0565b93509350505061069d565b60006002915091505b9250929050565b600060048111156106b8576106b761115c565b5b8160048111156106cb576106ca61115c565b5b14156106d657610876565b600160048111156106ea576106e961115c565b5b8160048111156106fd576106fc61115c565b5b141561073e576040517f08c379a0000000000000000000000000000000000000000000000000000000008152600401610735906111d7565b60405180910390fd5b600260048111156107525761075161115c565b5b8160048111156107655761076461115c565b5b14156107a6576040517f08c379a000000000000000000000000000000000000000000000000000000000815260040161079d90611243565b60405180910390fd5b600360048111156107ba576107b961115c565b5b8160048111156107cd576107cc61115c565b5b141561080e576040517f08c379a0000000000000000000000000000000000000000000000000000000008152600401610805906112d5565b60405180910390fd5b6004808111156108215761082061115c565b5b8160048111156108345761083361115c565b5b1415610875576040517f08c379a000000000000000000000000000000000000000000000000000000000815260040161086c90611367565b60405180910390fd5b5b50565b60008383834630604051602001610894959493929190611387565b6040516020818303038152906040528051906020012090509392505050565b6000807f7fffffffffffffffffffffffffffffff5d576e7357a4501ddfe92f46681b20a08360001c11156108ee5760006003915091506109b7565b601b8560ff16141580156109065750601c8560ff1614155b156109185760006004915091506109b7565b60006001878787876040516000815260200160405260405161093d94939291906113f6565b6020604051602081039080840390855afa15801561095f573d6000803e3d6000fd5b505050602060405103519050600073ffffffffffffffffffffffffffffffffffffffff168173ffffffffffffffffffffffffffffffffffffffff1614156109ae576000600192509250506109b7565b80600092509250505b94509492505050565b6000806000807f7fffffffffffffffffffffffffffffffffffffffffffffffffffffffffffffff85169150601b8560ff1c019050610a00878288856108b3565b935093505050935093915050565b600080fd5b600080fd5b600073ffffffffffffffffffffffffffffffffffffffff82169050919050565b6000610a4382610a18565b9050919050565b610a5381610a38565b8114610a5e57600080fd5b50565b600081359050610a7081610a4a565b92915050565b600060208284031215610a8c57610a8b610a0e565b5b6000610a9a84828501610a61565b91505092915050565b6000819050919050565b610ab681610aa3565b82525050565b6000602082019050610ad16000830184610aad565b92915050565b600080fd5b600060c08284031215610af257610af1610ad7565b5b81905092915050565b600080fd5b600080fd5b600080fd5b60008083601f840112610b2057610b1f610afb565b5b8235905067ffffffffffffffff811115610b3d57610b3c610b00565b5b602083019150836001820283011115610b5957610b58610b05565b5b9250929050565b600080600060408486031215610b7957610b78610a0e565b5b600084013567ffffffffffffffff811115610b9757610b96610a13565b5b610ba386828701610adc565b935050602084013567ffffffffffffffff811115610bc457610bc3610a13565b5b610bd086828701610b0a565b92509250509250925092565b60008115159050919050565b610bf181610bdc565b82525050565b600081519050919050565b600082825260208201905092915050565b60005b83811015610c31578082015181840152602081019050610c16565b83811115610c40576000848401525b50505050565b6000601f19601f8301169050919050565b6000610c6282610bf7565b610c6c8185610c02565b9350610c7c818560208601610c13565b610c8581610c46565b840191505092915050565b6000604082019050610ca56000830185610be8565b8181036020830152610cb78184610c57565b90509392505050565b6000602082019050610cd56000830184610be8565b92915050565b600082825260208201905092915050565b7f4d696e696d616c466f727761726465723a207369676e617475726520646f657360008201527f206e6f74206d6174636820726571756573740000000000000000000000000000602082015250565b6000610d48603283610cdb565b9150610d5382610cec565b604082019050919050565b60006020820190508181036000830152610d7781610d3b565b9050919050565b7f4e487b7100000000000000000000000000000000000000000000000000000000600052601160045260246000fd5b6000610db882610aa3565b9150610dc383610aa3565b9250827fffffffffffffffffffffffffffffffffffffffffffffffffffffffffffffffff03821115610df857610df7610d7e565b5b828201905092915050565b600080fd5b600080fd5b600080fd5b60008083356001602003843603038112610e2f57610e2e610e03565b5b80840192508235915067ffffffffffffffff821115610e5157610e50610e08565b5b602083019250600182023603831315610e6d57610e6c610e0d565b5b509250929050565b600081905092915050565b82818337600083830152505050565b6000610e9b8385610e75565b9350610ea8838584610e80565b82840190509392505050565b60008160601b9050919050565b6000610ecc82610eb4565b9050919050565b6000610ede82610ec1565b9050919050565b610ef6610ef182610a38565b610ed3565b82525050565b6000610f09828587610e8f565b9150610f158284610ee5565b601482019150819050949350505050565b6000610f3182610bf7565b610f3b8185610e75565b9350610f4b818560208601610c13565b80840191505092915050565b6000610f638284610f26565b915081905092915050565b7f4e487b7100000000000000000000000000000000000000000000000000000000600052601260045260246000fd5b6000610fa882610aa3565b9150610fb383610aa3565b925082610fc357610fc2610f6e565b5b828204905092915050565b7f4e487b7100000000000000000000000000000000000000000000000000000000600052600160045260246000fd5b600061100a828486610e8f565b91508190509392505050565b6000819050919050565b61102981611016565b82525050565b61103881610a38565b82525050565b600060e082019050611053600083018a611020565b611060602083018961102f565b61106d604083018861102f565b61107a6060830187610aad565b6110876080830186610aad565b61109460a0830185610aad565b6110a160c0830184611020565b98975050505050505050565b600081905092915050565b7f1901000000000000000000000000000000000000000000000000000000000000600082015250565b60006110ee6002836110ad565b91506110f9826110b8565b600282019050919050565b6000819050919050565b61111f61111a82611016565b611104565b82525050565b6000611130826110e1565b915061113c828561110e565b60208201915061114c828461110e565b6020820191508190509392505050565b7f4e487b7100000000000000000000000000000000000000000000000000000000600052602160045260246000fd5b7f45434453413a20696e76616c6964207369676e61747572650000000000000000600082015250565b60006111c1601883610cdb565b91506111cc8261118b565b602082019050919050565b600060208201905081810360008301526111f0816111b4565b9050919050565b7f45434453413a20696e76616c6964207369676e6174757265206c656e67746800600082015250565b600061122d601f83610cdb565b9150611238826111f7565b602082019050919050565b6000602082019050818103600083015261125c81611220565b9050919050565b7f45434453413a20696e76616c6964207369676e6174757265202773272076616c60008201527f7565000000000000000000000000000000000000000000000000000000000000602082015250565b60006112bf602283610cdb565b91506112ca82611263565b604082019050919050565b600060208201905081810360008301526112ee816112b2565b9050919050565b7f45434453413a20696e76616c6964207369676e6174757265202776272076616c60008201527f7565000000000000000000000000000000000000000000000000000000000000602082015250565b6000611351602283610cdb565b915061135c826112f5565b604082019050919050565b6000602082019050818103600083015261138081611344565b9050919050565b600060a08201905061139c6000830188611020565b6113a96020830187611020565b6113b66040830186611020565b6113c36060830185610aad565b6113d0608083018461102f565b9695505050505050565b600060ff82169050919050565b6113f0816113da565b82525050565b600060808201905061140b6000830187611020565b61141860208301866113e7565b6114256040830185611020565b6114326060830184611020565b9594505050505056fea2646970667358221220f18221d469e1355a152c2c48bda90359463c26c68803ca85bbf04564251bb5f864736f6c634300080a0033",
  "immutableReferences": {
    "17280": [
      {
        "length": 32,
        "start": 1367
      }
    ],
    "17282": [
      {
        "length": 32,
        "start": 1326
      }
    ],
    "17284": [
      {
        "length": 32,
        "start": 1240
      }
    ],
    "17286": [
      {
        "length": 32,
        "start": 1443
      }
    ],
    "17288": [
      {
        "length": 32,
        "start": 1476
      }
    ],
    "17290": [
      {
        "length": 32,
        "start": 1410
      }
    ]
  },
  "source": "// SPDX-License-Identifier: MIT\r\n// OpenZeppelin Contracts v4.4.0 (metatx/MinimalForwarder.sol)\r\n\r\npragma solidity ^0.8.0;\r\n\r\nimport \"../utils/cryptography/ECDSA.sol\";\r\nimport \"../utils/cryptography/draft-EIP712.sol\";\r\n\r\n/**\r\n * @dev Simple minimal forwarder to be used together with an ERC2771 compatible contract. See {ERC2771Context}.\r\n */\r\ncontract MinimalForwarder is EIP712 {\r\n    using ECDSA for bytes32;\r\n\r\n    struct ForwardRequest {\r\n        address from;\r\n        address to;\r\n        uint256 value;\r\n        uint256 gas;\r\n        uint256 nonce;\r\n        bytes data;\r\n    }\r\n\r\n    bytes32 private constant _TYPEHASH =\r\n        keccak256(\"ForwardRequest(address from,address to,uint256 value,uint256 gas,uint256 nonce,bytes data)\");\r\n\r\n    mapping(address => uint256) private _nonces;\r\n\r\n    constructor() EIP712(\"MinimalForwarder\", \"0.0.1\") {}\r\n\r\n    function getNonce(address from) public view returns (uint256) {\r\n        return _nonces[from];\r\n    }\r\n\r\n    function verify(ForwardRequest calldata req, bytes calldata signature) public view returns (bool) {\r\n        address signer = _hashTypedDataV4(\r\n            keccak256(abi.encode(_TYPEHASH, req.from, req.to, req.value, req.gas, req.nonce, keccak256(req.data)))\r\n        ).recover(signature);\r\n        return _nonces[req.from] == req.nonce && signer == req.from;\r\n    }\r\n\r\n    function execute(ForwardRequest calldata req, bytes calldata signature)\r\n        public\r\n        payable\r\n        returns (bool, bytes memory)\r\n    {\r\n        require(verify(req, signature), \"MinimalForwarder: signature does not match request\");\r\n        _nonces[req.from] = req.nonce + 1;\r\n\r\n        (bool success, bytes memory returndata) = req.to.call{gas: req.gas, value: req.value}(\r\n            abi.encodePacked(req.data, req.from)\r\n        );\r\n        // Validate that the relayer has sent enough gas for the call.\r\n        // See https://ronan.eth.link/blog/ethereum-gas-dangers/\r\n        assert(gasleft() > req.gas / 63);\r\n\r\n        return (success, returndata);\r\n    }\r\n}\r\n",
  "sourcePath": "D:\\Blockchain\\MetaScence\\contracts\\@openzeppelin\\contracts\\metatx\\MinimalForwarder.sol",
  "compiler": {
    "name": "solc",
    "version": "0.8.10+commit.fc410830.Emscripten.clang"
  },
  "schemaVersion": "3.4.3",
  "updatedAt": "2021-12-16T04:20:05.817Z",
  "devdoc": {
    "details": "Simple minimal forwarder to be used together with an ERC2771 compatible contract. See {ERC2771Context}.",
    "kind": "dev",
    "methods": {},
    "version": 1
  },
  "userdoc": {
    "kind": "user",
    "methods": {},
    "version": 1
  }
}