{
  "contractName": "NFT",
  "abi": [
    {
      "inputs": [],
      "stateMutability": "nonpayable",
      "type": "constructor"
    },
    {
      "anonymous": false,
      "inputs": [
        {
          "indexed": true,
          "internalType": "address",
          "name": "owner",
          "type": "address"
        },
        {
          "indexed": true,
          "internalType": "address",
          "name": "approved",
          "type": "address"
        },
        {
          "indexed": true,
          "internalType": "uint256",
          "name": "tokenId",
          "type": "uint256"
        }
      ],
      "name": "Approval",
      "type": "event"
    },
    {
      "anonymous": false,
      "inputs": [
        {
          "indexed": true,
          "internalType": "address",
          "name": "owner",
          "type": "address"
        },
        {
          "indexed": true,
          "internalType": "address",
          "name": "operator",
          "type": "address"
        },
        {
          "indexed": false,
          "internalType": "bool",
          "name": "approved",
          "type": "bool"
        }
      ],
      "name": "ApprovalForAll",
      "type": "event"
    },
    {
      "anonymous": false,
      "inputs": [
        {
          "indexed": true,
          "internalType": "address",
          "name": "from",
          "type": "address"
        },
        {
          "indexed": true,
          "internalType": "address",
          "name": "to",
          "type": "address"
        },
        {
          "indexed": true,
          "internalType": "uint256",
          "name": "tokenId",
          "type": "uint256"
        }
      ],
      "name": "Transfer",
      "type": "event"
    },
    {
      "inputs": [
        {
          "internalType": "address",
          "name": "to",
          "type": "address"
        },
        {
          "internalType": "uint256",
          "name": "tokenId",
          "type": "uint256"
        }
      ],
      "name": "approve",
      "outputs": [],
      "stateMutability": "nonpayable",
      "type": "function"
    },
    {
      "inputs": [
        {
          "internalType": "address",
          "name": "owner",
          "type": "address"
        }
      ],
      "name": "balanceOf",
      "outputs": [
        {
          "internalType": "uint256",
          "name": "",
          "type": "uint256"
        }
      ],
      "stateMutability": "view",
      "type": "function"
    },
    {
      "inputs": [
        {
          "internalType": "uint256",
          "name": "tokenId",
          "type": "uint256"
        }
      ],
      "name": "getApproved",
      "outputs": [
        {
          "internalType": "address",
          "name": "",
          "type": "address"
        }
      ],
      "stateMutability": "view",
      "type": "function"
    },
    {
      "inputs": [
        {
          "internalType": "address",
          "name": "owner",
          "type": "address"
        },
        {
          "internalType": "address",
          "name": "operator",
          "type": "address"
        }
      ],
      "name": "isApprovedForAll",
      "outputs": [
        {
          "internalType": "bool",
          "name": "",
          "type": "bool"
        }
      ],
      "stateMutability": "view",
      "type": "function"
    },
    {
      "inputs": [],
      "name": "name",
      "outputs": [
        {
          "internalType": "string",
          "name": "",
          "type": "string"
        }
      ],
      "stateMutability": "view",
      "type": "function"
    },
    {
      "inputs": [
        {
          "internalType": "uint256",
          "name": "tokenId",
          "type": "uint256"
        }
      ],
      "name": "ownerOf",
      "outputs": [
        {
          "internalType": "address",
          "name": "",
          "type": "address"
        }
      ],
      "stateMutability": "view",
      "type": "function"
    },
    {
      "inputs": [
        {
          "internalType": "address",
          "name": "from",
          "type": "address"
        },
        {
          "internalType": "address",
          "name": "to",
          "type": "address"
        },
        {
          "internalType": "uint256",
          "name": "tokenId",
          "type": "uint256"
        }
      ],
      "name": "safeTransferFrom",
      "outputs": [],
      "stateMutability": "nonpayable",
      "type": "function"
    },
    {
      "inputs": [
        {
          "internalType": "address",
          "name": "from",
          "type": "address"
        },
        {
          "internalType": "address",
          "name": "to",
          "type": "address"
        },
        {
          "internalType": "uint256",
          "name": "tokenId",
          "type": "uint256"
        },
        {
          "internalType": "bytes",
          "name": "_data",
          "type": "bytes"
        }
      ],
      "name": "safeTransferFrom",
      "outputs": [],
      "stateMutability": "nonpayable",
      "type": "function"
    },
    {
      "inputs": [
        {
          "internalType": "address",
          "name": "operator",
          "type": "address"
        },
        {
          "internalType": "bool",
          "name": "approved",
          "type": "bool"
        }
      ],
      "name": "setApprovalForAll",
      "outputs": [],
      "stateMutability": "nonpayable",
      "type": "function"
    },
    {
      "inputs": [
        {
          "internalType": "bytes4",
          "name": "interfaceId",
          "type": "bytes4"
        }
      ],
      "name": "supportsInterface",
      "outputs": [
        {
          "internalType": "bool",
          "name": "",
          "type": "bool"
        }
      ],
      "stateMutability": "view",
      "type": "function"
    },
    {
      "inputs": [],
      "name": "symbol",
      "outputs": [
        {
          "internalType": "string",
          "name": "",
          "type": "string"
        }
      ],
      "stateMutability": "view",
      "type": "function"
    },
    {
      "inputs": [
        {
          "internalType": "uint256",
          "name": "tokenId",
          "type": "uint256"
        }
      ],
      "name": "tokenURI",
      "outputs": [
        {
          "internalType": "string",
          "name": "",
          "type": "string"
        }
      ],
      "stateMutability": "view",
      "type": "function"
    },
    {
      "inputs": [
        {
          "internalType": "address",
          "name": "from",
          "type": "address"
        },
        {
          "internalType": "address",
          "name": "to",
          "type": "address"
        },
        {
          "internalType": "uint256",
          "name": "tokenId",
          "type": "uint256"
        }
      ],
      "name": "transferFrom",
      "outputs": [],
      "stateMutability": "nonpayable",
      "type": "function"
    },
    {
      "inputs": [],
      "name": "getOwner",
      "outputs": [
        {
          "internalType": "address",
          "name": "",
          "type": "address"
        }
      ],
      "stateMutability": "view",
      "type": "function"
    },
    {
      "inputs": [
        {
          "internalType": "address",
          "name": "_owner",
          "type": "address"
        },
        {
          "internalType": "string",
          "name": "name",
          "type": "string"
        },
        {
          "internalType": "uint32",
          "name": "amount",
          "type": "uint32"
        }
      ],
      "name": "mint",
      "outputs": [],
      "stateMutability": "nonpayable",
      "type": "function"
    },
    {
      "inputs": [],
      "name": "getNumberTokens",
      "outputs": [
        {
          "internalType": "uint256",
          "name": "",
          "type": "uint256"
        }
      ],
      "stateMutability": "view",
      "type": "function"
    },
    {
      "inputs": [
        {
          "internalType": "uint256",
          "name": "id",
          "type": "uint256"
        }
      ],
      "name": "getTokenById",
      "outputs": [
        {
          "components": [
            {
              "internalType": "string",
              "name": "name",
              "type": "string"
            },
            {
              "internalType": "address",
              "name": "owner",
              "type": "address"
            }
          ],
          "internalType": "struct NFT.Token",
          "name": "",
          "type": "tuple"
        }
      ],
      "stateMutability": "view",
      "type": "function"
    }
  ],
  "bytecode": "0x608060405260006007553480156200001657600080fd5b506040518060400160405280600781526020017f4d6574614e4654000000000000000000000000000000000000000000000000008152506040518060400160405280600381526020017f4d5354000000000000000000000000000000000000000000000000000000000081525081600090805190602001906200009b929190620000fe565b508060019080519060200190620000b4929190620000fe565b50505033600660006101000a81548173ffffffffffffffffffffffffffffffffffffffff021916908373ffffffffffffffffffffffffffffffffffffffff16021790555062000213565b8280546200010c90620001dd565b90600052602060002090601f0160209004810192826200013057600085556200017c565b82601f106200014b57805160ff19168380011785556200017c565b828001600101855582156200017c579182015b828111156200017b5782518255916020019190600101906200015e565b5b5090506200018b91906200018f565b5090565b5b80821115620001aa57600081600090555060010162000190565b5090565b7f4e487b7100000000000000000000000000000000000000000000000000000000600052602260045260246000fd5b60006002820490506001821680620001f657607f821691505b602082108114156200020d576200020c620001ae565b5b50919050565b612cd080620002236000396000f3fe608060405234801561001057600080fd5b506004361061010b5760003560e01c80636352211e116100a257806395d89b411161007157806395d89b41146102ca578063a22cb465146102e8578063b88d4fde14610304578063c87b56dd14610320578063e985e9c5146103505761010b565b80636352211e1461021c57806370a082311461024c5780637bdc60d91461027c578063893d20e8146102ac5761010b565b806309c6ef90116100de57806309c6ef90146101aa57806323b872dd146101c857806340a876de146101e457806342842e0e146102005761010b565b806301ffc9a71461011057806306fdde0314610140578063081812fc1461015e578063095ea7b31461018e575b600080fd5b61012a60048036038101906101259190611a22565b610380565b6040516101379190611a6a565b60405180910390f35b610148610462565b6040516101559190611b1e565b60405180910390f35b61017860048036038101906101739190611b76565b6104f4565b6040516101859190611be4565b60405180910390f35b6101a860048036038101906101a39190611c2b565b610579565b005b6101b2610691565b6040516101bf9190611c7a565b60405180910390f35b6101e260048036038101906101dd9190611c95565b61069b565b005b6101fe60048036038101906101f99190611e59565b6106fb565b005b61021a60048036038101906102159190611c95565b610855565b005b61023660048036038101906102319190611b76565b610875565b6040516102439190611be4565b60405180910390f35b61026660048036038101906102619190611ec8565b610927565b6040516102739190611c7a565b60405180910390f35b61029660048036038101906102919190611b76565b6109df565b6040516102a39190611f8b565b60405180910390f35b6102b4610af4565b6040516102c19190611be4565b60405180910390f35b6102d2610b1e565b6040516102df9190611b1e565b60405180910390f35b61030260048036038101906102fd9190611fd9565b610bb0565b005b61031e600480360381019061031991906120ba565b610bc6565b005b61033a60048036038101906103359190611b76565b610c28565b6040516103479190611b1e565b60405180910390f35b61036a6004803603810190610365919061213d565b610ccf565b6040516103779190611a6a565b60405180910390f35b60007f80ac58cd000000000000000000000000000000000000000000000000000000007bffffffffffffffffffffffffffffffffffffffffffffffffffffffff1916827bffffffffffffffffffffffffffffffffffffffffffffffffffffffff1916148061044b57507f5b5e139f000000000000000000000000000000000000000000000000000000007bffffffffffffffffffffffffffffffffffffffffffffffffffffffff1916827bffffffffffffffffffffffffffffffffffffffffffffffffffffffff1916145b8061045b575061045a82610d63565b5b9050919050565b606060008054610471906121ac565b80601f016020809104026020016040519081016040528092919081815260200182805461049d906121ac565b80156104ea5780601f106104bf576101008083540402835291602001916104ea565b820191906000526020600020905b8154815290600101906020018083116104cd57829003601f168201915b5050505050905090565b60006104ff82610dcd565b61053e576040517f08c379a000000000000000000000000000000000000000000000000000000000815260040161053590612250565b60405180910390fd5b6004600083815260200190815260200160002060009054906101000a900473ffffffffffffffffffffffffffffffffffffffff169050919050565b600061058482610875565b90508073ffffffffffffffffffffffffffffffffffffffff168373ffffffffffffffffffffffffffffffffffffffff1614156105f5576040517f08c379a00000000000000000000000000000000000000000000000000000000081526004016105ec906122e2565b60405180910390fd5b8073ffffffffffffffffffffffffffffffffffffffff16610614610e39565b73ffffffffffffffffffffffffffffffffffffffff16148061064357506106428161063d610e39565b610ccf565b5b610682576040517f08c379a000000000000000000000000000000000000000000000000000000000815260040161067990612374565b60405180910390fd5b61068c8383610e41565b505050565b6000600754905090565b6106ac6106a6610e39565b82610efa565b6106eb576040517f08c379a00000000000000000000000000000000000000000000000000000000081526004016106e290612406565b60405180910390fd5b6106f6838383610fd8565b505050565b600660009054906101000a900473ffffffffffffffffffffffffffffffffffffffff1673ffffffffffffffffffffffffffffffffffffffff163373ffffffffffffffffffffffffffffffffffffffff161461075557600080fd5b60005b8163ffffffff168163ffffffff161161084f576007600081548092919061077e90612455565b9190505550600060405180604001604052808581526020018673ffffffffffffffffffffffffffffffffffffffff1681525090508060086000600754815260200190815260200160002060008201518160000190805190602001906107e49291906118e3565b5060208201518160010160006101000a81548173ffffffffffffffffffffffffffffffffffffffff021916908373ffffffffffffffffffffffffffffffffffffffff16021790555090505061083b85600754611234565b5080806108479061249e565b915050610758565b50505050565b61087083838360405180602001604052806000815250610bc6565b505050565b6000806002600084815260200190815260200160002060009054906101000a900473ffffffffffffffffffffffffffffffffffffffff169050600073ffffffffffffffffffffffffffffffffffffffff168173ffffffffffffffffffffffffffffffffffffffff16141561091e576040517f08c379a00000000000000000000000000000000000000000000000000000000081526004016109159061253d565b60405180910390fd5b80915050919050565b60008073ffffffffffffffffffffffffffffffffffffffff168273ffffffffffffffffffffffffffffffffffffffff161415610998576040517f08c379a000000000000000000000000000000000000000000000000000000000815260040161098f906125cf565b60405180910390fd5b600360008373ffffffffffffffffffffffffffffffffffffffff1673ffffffffffffffffffffffffffffffffffffffff168152602001908152602001600020549050919050565b6109e7611969565b60086000838152602001908152602001600020604051806040016040529081600082018054610a15906121ac565b80601f0160208091040260200160405190810160405280929190818152602001828054610a41906121ac565b8015610a8e5780601f10610a6357610100808354040283529160200191610a8e565b820191906000526020600020905b815481529060010190602001808311610a7157829003601f168201915b505050505081526020016001820160009054906101000a900473ffffffffffffffffffffffffffffffffffffffff1673ffffffffffffffffffffffffffffffffffffffff1673ffffffffffffffffffffffffffffffffffffffff16815250509050919050565b6000600660009054906101000a900473ffffffffffffffffffffffffffffffffffffffff16905090565b606060018054610b2d906121ac565b80601f0160208091040260200160405190810160405280929190818152602001828054610b59906121ac565b8015610ba65780601f10610b7b57610100808354040283529160200191610ba6565b820191906000526020600020905b815481529060010190602001808311610b8957829003601f168201915b5050505050905090565b610bc2610bbb610e39565b8383611402565b5050565b610bd7610bd1610e39565b83610efa565b610c16576040517f08c379a0000000000000000000000000000000000000000000000000000000008152600401610c0d90612406565b60405180910390fd5b610c228484848461156f565b50505050565b6060610c3382610dcd565b610c72576040517f08c379a0000000000000000000000000000000000000000000000000000000008152600401610c6990612661565b60405180910390fd5b6000610c7c6115cb565b90506000815111610c9c5760405180602001604052806000815250610cc7565b80610ca6846115e2565b604051602001610cb79291906126bd565b6040516020818303038152906040525b915050919050565b6000600560008473ffffffffffffffffffffffffffffffffffffffff1673ffffffffffffffffffffffffffffffffffffffff16815260200190815260200160002060008373ffffffffffffffffffffffffffffffffffffffff1673ffffffffffffffffffffffffffffffffffffffff16815260200190815260200160002060009054906101000a900460ff16905092915050565b60007f01ffc9a7000000000000000000000000000000000000000000000000000000007bffffffffffffffffffffffffffffffffffffffffffffffffffffffff1916827bffffffffffffffffffffffffffffffffffffffffffffffffffffffff1916149050919050565b60008073ffffffffffffffffffffffffffffffffffffffff166002600084815260200190815260200160002060009054906101000a900473ffffffffffffffffffffffffffffffffffffffff1673ffffffffffffffffffffffffffffffffffffffff1614159050919050565b600033905090565b816004600083815260200190815260200160002060006101000a81548173ffffffffffffffffffffffffffffffffffffffff021916908373ffffffffffffffffffffffffffffffffffffffff160217905550808273ffffffffffffffffffffffffffffffffffffffff16610eb483610875565b73ffffffffffffffffffffffffffffffffffffffff167f8c5be1e5ebec7d5bd14f71427d1e84f3dd0314c0f7b2291e5b200ac8c7c3b92560405160405180910390a45050565b6000610f0582610dcd565b610f44576040517f08c379a0000000000000000000000000000000000000000000000000000000008152600401610f3b90612753565b60405180910390fd5b6000610f4f83610875565b90508073ffffffffffffffffffffffffffffffffffffffff168473ffffffffffffffffffffffffffffffffffffffff161480610fbe57508373ffffffffffffffffffffffffffffffffffffffff16610fa6846104f4565b73ffffffffffffffffffffffffffffffffffffffff16145b80610fcf5750610fce8185610ccf565b5b91505092915050565b8273ffffffffffffffffffffffffffffffffffffffff16610ff882610875565b73ffffffffffffffffffffffffffffffffffffffff161461104e576040517f08c379a0000000000000000000000000000000000000000000000000000000008152600401611045906127e5565b60405180910390fd5b600073ffffffffffffffffffffffffffffffffffffffff168273ffffffffffffffffffffffffffffffffffffffff1614156110be576040517f08c379a00000000000000000000000000000000000000000000000000000000081526004016110b590612877565b60405180910390fd5b6110c9838383611743565b6110d4600082610e41565b6001600360008573ffffffffffffffffffffffffffffffffffffffff1673ffffffffffffffffffffffffffffffffffffffff16815260200190815260200160002060008282546111249190612897565b925050819055506001600360008473ffffffffffffffffffffffffffffffffffffffff1673ffffffffffffffffffffffffffffffffffffffff168152602001908152602001600020600082825461117b91906128cb565b92505081905550816002600083815260200190815260200160002060006101000a81548173ffffffffffffffffffffffffffffffffffffffff021916908373ffffffffffffffffffffffffffffffffffffffff160217905550808273ffffffffffffffffffffffffffffffffffffffff168473ffffffffffffffffffffffffffffffffffffffff167fddf252ad1be2c89b69c2b068fc378daa952ba7f163c4a11628f55a4df523b3ef60405160405180910390a4505050565b600073ffffffffffffffffffffffffffffffffffffffff168273ffffffffffffffffffffffffffffffffffffffff1614156112a4576040517f08c379a000000000000000000000000000000000000000000000000000000000815260040161129b9061296d565b60405180910390fd5b6112ad81610dcd565b156112ed576040517f08c379a00000000000000000000000000000000000000000000000000000000081526004016112e4906129d9565b60405180910390fd5b6112f960008383611743565b6001600360008473ffffffffffffffffffffffffffffffffffffffff1673ffffffffffffffffffffffffffffffffffffffff168152602001908152602001600020600082825461134991906128cb565b92505081905550816002600083815260200190815260200160002060006101000a81548173ffffffffffffffffffffffffffffffffffffffff021916908373ffffffffffffffffffffffffffffffffffffffff160217905550808273ffffffffffffffffffffffffffffffffffffffff16600073ffffffffffffffffffffffffffffffffffffffff167fddf252ad1be2c89b69c2b068fc378daa952ba7f163c4a11628f55a4df523b3ef60405160405180910390a45050565b8173ffffffffffffffffffffffffffffffffffffffff168373ffffffffffffffffffffffffffffffffffffffff161415611471576040517f08c379a000000000000000000000000000000000000000000000000000000000815260040161146890612a45565b60405180910390fd5b80600560008573ffffffffffffffffffffffffffffffffffffffff1673ffffffffffffffffffffffffffffffffffffffff16815260200190815260200160002060008473ffffffffffffffffffffffffffffffffffffffff1673ffffffffffffffffffffffffffffffffffffffff16815260200190815260200160002060006101000a81548160ff0219169083151502179055508173ffffffffffffffffffffffffffffffffffffffff168373ffffffffffffffffffffffffffffffffffffffff167f17307eab39ab6107e8899845ad3d59bd9653f200f220920489ca2b5937696c31836040516115629190611a6a565b60405180910390a3505050565b61157a848484610fd8565b61158684848484611748565b6115c5576040517f08c379a00000000000000000000000000000000000000000000000000000000081526004016115bc90612ad7565b60405180910390fd5b50505050565b606060405180602001604052806000815250905090565b6060600082141561162a576040518060400160405280600181526020017f3000000000000000000000000000000000000000000000000000000000000000815250905061173e565b600082905060005b6000821461165c57808061164590612455565b915050600a826116559190612b26565b9150611632565b60008167ffffffffffffffff81111561167857611677611cf2565b5b6040519080825280601f01601f1916602001820160405280156116aa5781602001600182028036833780820191505090505b5090505b60008514611737576001826116c39190612897565b9150600a856116d29190612b57565b60306116de91906128cb565b60f81b8183815181106116f4576116f3612b88565b5b60200101907effffffffffffffffffffffffffffffffffffffffffffffffffffffffffffff1916908160001a905350600a856117309190612b26565b94506116ae565b8093505050505b919050565b505050565b60006117698473ffffffffffffffffffffffffffffffffffffffff166118d0565b156118c3578373ffffffffffffffffffffffffffffffffffffffff1663150b7a02611792610e39565b8786866040518563ffffffff1660e01b81526004016117b49493929190612c0c565b6020604051808303816000875af19250505080156117f057506040513d601f19601f820116820180604052508101906117ed9190612c6d565b60015b611873573d8060008114611820576040519150601f19603f3d011682016040523d82523d6000602084013e611825565b606091505b5060008151141561186b576040517f08c379a000000000000000000000000000000000000000000000000000000000815260040161186290612ad7565b60405180910390fd5b805181602001fd5b63150b7a0260e01b7bffffffffffffffffffffffffffffffffffffffffffffffffffffffff1916817bffffffffffffffffffffffffffffffffffffffffffffffffffffffff1916149150506118c8565b600190505b949350505050565b600080823b905060008111915050919050565b8280546118ef906121ac565b90600052602060002090601f0160209004810192826119115760008555611958565b82601f1061192a57805160ff1916838001178555611958565b82800160010185558215611958579182015b8281111561195757825182559160200191906001019061193c565b5b5090506119659190611999565b5090565b604051806040016040528060608152602001600073ffffffffffffffffffffffffffffffffffffffff1681525090565b5b808211156119b257600081600090555060010161199a565b5090565b6000604051905090565b600080fd5b600080fd5b60007fffffffff0000000000000000000000000000000000000000000000000000000082169050919050565b6119ff816119ca565b8114611a0a57600080fd5b50565b600081359050611a1c816119f6565b92915050565b600060208284031215611a3857611a376119c0565b5b6000611a4684828501611a0d565b91505092915050565b60008115159050919050565b611a6481611a4f565b82525050565b6000602082019050611a7f6000830184611a5b565b92915050565b600081519050919050565b600082825260208201905092915050565b60005b83811015611abf578082015181840152602081019050611aa4565b83811115611ace576000848401525b50505050565b6000601f19601f8301169050919050565b6000611af082611a85565b611afa8185611a90565b9350611b0a818560208601611aa1565b611b1381611ad4565b840191505092915050565b60006020820190508181036000830152611b388184611ae5565b905092915050565b6000819050919050565b611b5381611b40565b8114611b5e57600080fd5b50565b600081359050611b7081611b4a565b92915050565b600060208284031215611b8c57611b8b6119c0565b5b6000611b9a84828501611b61565b91505092915050565b600073ffffffffffffffffffffffffffffffffffffffff82169050919050565b6000611bce82611ba3565b9050919050565b611bde81611bc3565b82525050565b6000602082019050611bf96000830184611bd5565b92915050565b611c0881611bc3565b8114611c1357600080fd5b50565b600081359050611c2581611bff565b92915050565b60008060408385031215611c4257611c416119c0565b5b6000611c5085828601611c16565b9250506020611c6185828601611b61565b9150509250929050565b611c7481611b40565b82525050565b6000602082019050611c8f6000830184611c6b565b92915050565b600080600060608486031215611cae57611cad6119c0565b5b6000611cbc86828701611c16565b9350506020611ccd86828701611c16565b9250506040611cde86828701611b61565b9150509250925092565b600080fd5b600080fd5b7f4e487b7100000000000000000000000000000000000000000000000000000000600052604160045260246000fd5b611d2a82611ad4565b810181811067ffffffffffffffff82111715611d4957611d48611cf2565b5b80604052505050565b6000611d5c6119b6565b9050611d688282611d21565b919050565b600067ffffffffffffffff821115611d8857611d87611cf2565b5b611d9182611ad4565b9050602081019050919050565b82818337600083830152505050565b6000611dc0611dbb84611d6d565b611d52565b905082815260208101848484011115611ddc57611ddb611ced565b5b611de7848285611d9e565b509392505050565b600082601f830112611e0457611e03611ce8565b5b8135611e14848260208601611dad565b91505092915050565b600063ffffffff82169050919050565b611e3681611e1d565b8114611e4157600080fd5b50565b600081359050611e5381611e2d565b92915050565b600080600060608486031215611e7257611e716119c0565b5b6000611e8086828701611c16565b935050602084013567ffffffffffffffff811115611ea157611ea06119c5565b5b611ead86828701611def565b9250506040611ebe86828701611e44565b9150509250925092565b600060208284031215611ede57611edd6119c0565b5b6000611eec84828501611c16565b91505092915050565b600082825260208201905092915050565b6000611f1182611a85565b611f1b8185611ef5565b9350611f2b818560208601611aa1565b611f3481611ad4565b840191505092915050565b611f4881611bc3565b82525050565b60006040830160008301518482036000860152611f6b8282611f06565b9150506020830151611f806020860182611f3f565b508091505092915050565b60006020820190508181036000830152611fa58184611f4e565b905092915050565b611fb681611a4f565b8114611fc157600080fd5b50565b600081359050611fd381611fad565b92915050565b60008060408385031215611ff057611fef6119c0565b5b6000611ffe85828601611c16565b925050602061200f85828601611fc4565b9150509250929050565b600067ffffffffffffffff82111561203457612033611cf2565b5b61203d82611ad4565b9050602081019050919050565b600061205d61205884612019565b611d52565b90508281526020810184848401111561207957612078611ced565b5b612084848285611d9e565b509392505050565b600082601f8301126120a1576120a0611ce8565b5b81356120b184826020860161204a565b91505092915050565b600080600080608085870312156120d4576120d36119c0565b5b60006120e287828801611c16565b94505060206120f387828801611c16565b935050604061210487828801611b61565b925050606085013567ffffffffffffffff811115612125576121246119c5565b5b6121318782880161208c565b91505092959194509250565b60008060408385031215612154576121536119c0565b5b600061216285828601611c16565b925050602061217385828601611c16565b9150509250929050565b7f4e487b7100000000000000000000000000000000000000000000000000000000600052602260045260246000fd5b600060028204905060018216806121c457607f821691505b602082108114156121d8576121d761217d565b5b50919050565b7f4552433732313a20617070726f76656420717565727920666f72206e6f6e657860008201527f697374656e7420746f6b656e0000000000000000000000000000000000000000602082015250565b600061223a602c83611a90565b9150612245826121de565b604082019050919050565b600060208201905081810360008301526122698161222d565b9050919050565b7f4552433732313a20617070726f76616c20746f2063757272656e74206f776e6560008201527f7200000000000000000000000000000000000000000000000000000000000000602082015250565b60006122cc602183611a90565b91506122d782612270565b604082019050919050565b600060208201905081810360008301526122fb816122bf565b9050919050565b7f4552433732313a20617070726f76652063616c6c6572206973206e6f74206f7760008201527f6e6572206e6f7220617070726f76656420666f7220616c6c0000000000000000602082015250565b600061235e603883611a90565b915061236982612302565b604082019050919050565b6000602082019050818103600083015261238d81612351565b9050919050565b7f4552433732313a207472616e736665722063616c6c6572206973206e6f74206f60008201527f776e6572206e6f7220617070726f766564000000000000000000000000000000602082015250565b60006123f0603183611a90565b91506123fb82612394565b604082019050919050565b6000602082019050818103600083015261241f816123e3565b9050919050565b7f4e487b7100000000000000000000000000000000000000000000000000000000600052601160045260246000fd5b600061246082611b40565b91507fffffffffffffffffffffffffffffffffffffffffffffffffffffffffffffffff82141561249357612492612426565b5b600182019050919050565b60006124a982611e1d565b915063ffffffff8214156124c0576124bf612426565b5b600182019050919050565b7f4552433732313a206f776e657220717565727920666f72206e6f6e657869737460008201527f656e7420746f6b656e0000000000000000000000000000000000000000000000602082015250565b6000612527602983611a90565b9150612532826124cb565b604082019050919050565b600060208201905081810360008301526125568161251a565b9050919050565b7f4552433732313a2062616c616e636520717565727920666f7220746865207a6560008201527f726f206164647265737300000000000000000000000000000000000000000000602082015250565b60006125b9602a83611a90565b91506125c48261255d565b604082019050919050565b600060208201905081810360008301526125e8816125ac565b9050919050565b7f4552433732314d657461646174613a2055524920717565727920666f72206e6f60008201527f6e6578697374656e7420746f6b656e0000000000000000000000000000000000602082015250565b600061264b602f83611a90565b9150612656826125ef565b604082019050919050565b6000602082019050818103600083015261267a8161263e565b9050919050565b600081905092915050565b600061269782611a85565b6126a18185612681565b93506126b1818560208601611aa1565b80840191505092915050565b60006126c9828561268c565b91506126d5828461268c565b91508190509392505050565b7f4552433732313a206f70657261746f7220717565727920666f72206e6f6e657860008201527f697374656e7420746f6b656e0000000000000000000000000000000000000000602082015250565b600061273d602c83611a90565b9150612748826126e1565b604082019050919050565b6000602082019050818103600083015261276c81612730565b9050919050565b7f4552433732313a207472616e73666572206f6620746f6b656e2074686174206960008201527f73206e6f74206f776e0000000000000000000000000000000000000000000000602082015250565b60006127cf602983611a90565b91506127da82612773565b604082019050919050565b600060208201905081810360008301526127fe816127c2565b9050919050565b7f4552433732313a207472616e7366657220746f20746865207a65726f2061646460008201527f7265737300000000000000000000000000000000000000000000000000000000602082015250565b6000612861602483611a90565b915061286c82612805565b604082019050919050565b6000602082019050818103600083015261289081612854565b9050919050565b60006128a282611b40565b91506128ad83611b40565b9250828210156128c0576128bf612426565b5b828203905092915050565b60006128d682611b40565b91506128e183611b40565b9250827fffffffffffffffffffffffffffffffffffffffffffffffffffffffffffffffff0382111561291657612915612426565b5b828201905092915050565b7f4552433732313a206d696e7420746f20746865207a65726f2061646472657373600082015250565b6000612957602083611a90565b915061296282612921565b602082019050919050565b600060208201905081810360008301526129868161294a565b9050919050565b7f4552433732313a20746f6b656e20616c7265616479206d696e74656400000000600082015250565b60006129c3601c83611a90565b91506129ce8261298d565b602082019050919050565b600060208201905081810360008301526129f2816129b6565b9050919050565b7f4552433732313a20617070726f766520746f2063616c6c657200000000000000600082015250565b6000612a2f601983611a90565b9150612a3a826129f9565b602082019050919050565b60006020820190508181036000830152612a5e81612a22565b9050919050565b7f4552433732313a207472616e7366657220746f206e6f6e20455243373231526560008201527f63656976657220696d706c656d656e7465720000000000000000000000000000602082015250565b6000612ac1603283611a90565b9150612acc82612a65565b604082019050919050565b60006020820190508181036000830152612af081612ab4565b9050919050565b7f4e487b7100000000000000000000000000000000000000000000000000000000600052601260045260246000fd5b6000612b3182611b40565b9150612b3c83611b40565b925082612b4c57612b4b612af7565b5b828204905092915050565b6000612b6282611b40565b9150612b6d83611b40565b925082612b7d57612b7c612af7565b5b828206905092915050565b7f4e487b7100000000000000000000000000000000000000000000000000000000600052603260045260246000fd5b600081519050919050565b600082825260208201905092915050565b6000612bde82612bb7565b612be88185612bc2565b9350612bf8818560208601611aa1565b612c0181611ad4565b840191505092915050565b6000608082019050612c216000830187611bd5565b612c2e6020830186611bd5565b612c3b6040830185611c6b565b8181036060830152612c4d8184612bd3565b905095945050505050565b600081519050612c67816119f6565b92915050565b600060208284031215612c8357612c826119c0565b5b6000612c9184828501612c58565b9150509291505056fea2646970667358221220049779f36fa103e9dd237202b4db72199b51eded93ba1bba1659e9a822e1bc8c64736f6c634300080a0033",
  "immutableReferences": {},
  "source": "// SPDX-License-Identifier: MIT\npragma solidity ^0.8.10;\n\nimport \"./@openzeppelin/contracts/token/ERC721/ERC721.sol\";\n\ncontract NFT is ERC721 {\n    address admin;\n    constructor() ERC721(\"MetaNFT\", \"MST\"){\n        admin = msg.sender;\n    }\n\n    struct Token{\n        string name;\n        address owner;\n    }\n    uint private _tokenId = 0;\n    mapping(uint => Token) tokens;\n\n    function getOwner() external view returns(address){\n        return admin;\n    }\n\n    function mint(address _owner, string memory name, uint32 amount) external {\n        require(msg.sender == admin);\n        for(uint32 i = 0; i<= amount; i++){\n            _tokenId++;\n            Token memory token = Token(\n                name,_owner\n            );\n            tokens[_tokenId] = token;\n            _mint(_owner, _tokenId);\n        }\n    }\n\n    function getNumberTokens() external view returns(uint ){\n        return _tokenId;\n    }\n\n    function getTokenById(uint id) external view returns(Token memory){\n        return tokens[id];\n    }\n\n}",
  "sourcePath": "/Users/bienpx224/Desktop/Solidity/MetaScence/contracts/NFT.sol",
  "compiler": {
    "name": "solc",
    "version": "0.8.10+commit.fc410830.Emscripten.clang"
  },
  "schemaVersion": "3.4.3",
  "updatedAt": "2021-12-17T06:48:58.691Z",
  "devdoc": {
    "kind": "dev",
    "methods": {
      "approve(address,uint256)": {
        "details": "See {IERC721-approve}."
      },
      "balanceOf(address)": {
        "details": "See {IERC721-balanceOf}."
      },
      "getApproved(uint256)": {
        "details": "See {IERC721-getApproved}."
      },
      "isApprovedForAll(address,address)": {
        "details": "See {IERC721-isApprovedForAll}."
      },
      "name()": {
        "details": "See {IERC721Metadata-name}."
      },
      "ownerOf(uint256)": {
        "details": "See {IERC721-ownerOf}."
      },
      "safeTransferFrom(address,address,uint256)": {
        "details": "See {IERC721-safeTransferFrom}."
      },
      "safeTransferFrom(address,address,uint256,bytes)": {
        "details": "See {IERC721-safeTransferFrom}."
      },
      "setApprovalForAll(address,bool)": {
        "details": "See {IERC721-setApprovalForAll}."
      },
      "supportsInterface(bytes4)": {
        "details": "See {IERC165-supportsInterface}."
      },
      "symbol()": {
        "details": "See {IERC721Metadata-symbol}."
      },
      "tokenURI(uint256)": {
        "details": "See {IERC721Metadata-tokenURI}."
      },
      "transferFrom(address,address,uint256)": {
        "details": "See {IERC721-transferFrom}."
      }
    },
    "version": 1
  },
  "userdoc": {
    "kind": "user",
    "methods": {},
    "version": 1
  }
}